:100000000C94F5000C941D010C941D010C94CC2053
:100010000C94CC200C94CC200C941D010C948613D1
:100020000C941D010C941D010C941D010C94E51DF4
:100030000C941D010C941D010C941D010C941D01C8
:100040000C945D220C941D010C9464250C9496254F
:100050000C941D010C941D010C941D010C941D01A8
:100060000C941D010C941D01F7076608FA07FD07A3
:10007000090800086C0803086C086C0806086C087E
:100080000C086C086C086C086C086C086C086C0830
:1000900042084508480839086C083C083F086C08C5
:1000A0006C086C080F081208150818081B081E08B1
:1000B00021086C086C086C08240827082A082D08F9
:1000C0003008330836086C086C086C084B086C085C
:1000D0006C086C086C086C086C086C086C086C0880
:1000E0004E086C086C086C086C086C086C086C088E
:1000F0006C086C0851086C086C086C086C086C087B
:100100006C086C086C086C08540857085A085D089D
:1001100060086308084AD73B3BCE016E84BCBFFD34
:10012000C12F3D6C74319ABD56833DDA3D00C77FC7
:1001300011BED9E4BB4C3E916BAAAABE0000008060
:100140003F00000000080002010000030407000057
:10015000000000000000010204081020408001029D
:1001600004081020010204081020040404040404FC
:100170000404020202020202030303030303000059
:1001800000002300260029000000000025002800B0
:100190002B0000000000240027002A006364696E21
:1001A0006F70737578585B004E414E494E495459F3
:1001B000494E46CDCCCC3D0AD7233C17B7D1387732
:1001C000CC2B329595E6241FB14F0A000020410048
:1001D00000C84200401C4620BCBE4CCA1B0E5AAE92
:1001E000C59D74009008C625D70811241FBECFEF07
:1001F000D8E0DEBFCDBF11E0A0E0B1E0E2E0F6E67E
:1002000002C005900D92AC38B107D9F724E0ACE8F4
:10021000B1E001C01D92A738B207E1F711E0C8EEC6
:10022000D1E004C02297FE010E94572CC43ED107A2
:10023000C9F70E940A260C94F4320C940000CF9364
:10024000DF93EEE0F2E0C0E0D0E04191242F30E017
:1002500028173907C9F0411110C0FE01E25FFD4FB8
:1002600080839E01220F331F2C0F3D1FBC01C9014B
:100270008C5E9D4F0E943B1F07C02196C630D10562
:1002800021F780E090E001C0CE01DF91CF91089589
:10029000EF92FF920F931F93CF93DF93EB01FC013B
:1002A0006081613401F5FF92EF921F930F933F93AA
:1002B0002F935F934F93DF93CF9323E231E03F93EC
:1002C0002F939F938F930E940F2E888199810E9672
:1002D000998388838DB79EB70E960FB6F8949EBF0C
:1002E0000FBE8DBF1AC0FF92EF921F930F933F93E3
:1002F0002F935F934F93DF93CF9324E231E03F93AB
:100300002F939F938F930E940F2E8DB79EB70E96BB
:100310000FB6F8949EBF0FBE8DBFDF91CF911F9196
:100320000F91FF90EF900895DC01ED91FC911197F2
:100330009F012F5F3F4F2D933C9320812032A1F7E7
:100340000895EF92FF920F931F93CF93DF93CDB752
:10035000DEB72C970FB6F894DEBF0FBECDBF9C87DB
:100360008B87CE010B960E949401CE0101967C01F1
:100370008E010D5F1F4F9E012B5F3F4FAE01495F06
:100380005F4FBE01675F7F4F8B859C850E94480150
:10039000698585EA92E00E94A21B09812B814D812B
:1003A0006F8185EA92E00E94E61B85EA92E00E9456
:1003B000371C2C960FB6F894DEBF0FBECDBFDF9171
:1003C000CF911F910F91FF90EF900895CF93DF93FE
:1003D000EC010E94940188819981DF91CF910C9466
:1003E000B42DEF92FF920F931F93CF93DF9300D022
:1003F000CDB7DEB79A838983CE0101960E94E601CC
:100400007C01CE0101960E94E6018C01C7010E9489
:100410001F01053B110558F49C01220F331F280FC3
:10042000391FB801C9018C5E9D4F0E94741F0F9047
:100430000F90DF91CF911F910F91FF90EF90089552
:10044000CF93DF9300D0CDB7DEB79A838983CE01F7
:1004500001960E94E601682F8CEA92E00E94781DC6
:100460008CEA92E00E947A1DAB01BC0122E030E0F0
:100470008AED92E00E943E280F900F90DF91CF917D
:100480000895CF93DF9300D0CDB7DEB79A838983E9
:10049000CE0101960E94E6010E9458244AE050E0F5
:1004A000BC018AED92E00E9405270F900F90DF912A
:1004B000CF9108950F931F93CF93DF9300D0CDB7C3
:1004C000DEB79A838983CE0101960E94E601182F38
:1004D000CE0101960E94E601082F61E0812F0E9463
:1004E000E923602F812F0E9422240F900F90DF912B
:1004F000CF911F910F9108951F93CF93DF9300D059
:10050000CDB7DEB79A838983CE0101960E94E601BA
:10051000182F60E00E94E923812F0E9444234AE0C3
:1005200050E0BC018AED92E00E9405270F900F90E9
:10053000DF91CF911F910895FF920F931F93CF9357
:10054000DF9300D0CDB7DEB79A838983CE010196C1
:100550000E94E601F82ECE0101960E94E6018C0170
:1005600061E08F2D0E94E923B8018F2D0E94612345
:100570000F900F90DF91CF911F910F91FF900895F1
:100580007F928F929F92AF92BF92CF92DF92EF9223
:10059000FF920F931F93CF93DF9300D0CDB7DEB7B9
:1005A0009A838983CDB6DEB6CE0101960E94E6011C
:1005B000982ECE0101960E94E601A82ECE0101964A
:1005C0000E94E601B82E882E8DB79EB78B1991092F
:1005D0000FB6F8949EBF0FBE8DBFEDB7FEB7319634
:1005E0007F017E2E8F01802F8719881540F4CE0160
:1005F00001960E94E601F80181938F01F4CF692DE5
:1006000086ED92E00E94831997014B2D6A2D86EDAD
:1006100092E00E94B71A84EF91E00E94FE220FB68A
:10062000F894DEBE0FBECDBE0F900F90DF91CF913C
:100630001F910F91FF90EF90DF90CF90BF90AF9000
:100640009F908F907F9008951F93CF93DF9300D05A
:1006500000D0CDB7DEB79A838983CE0101960E9480
:10066000E601682FCE0101966C830E94E601182FE7
:10067000CE0101960E94E601482FCE0101964B83E0
:100680000E9494016C818BEB92E00E946514298199
:100690003A814B81612F8BEB92E00E94BC150F9049
:1006A0000F900F900F90DF91CF911F9108959F921F
:1006B000AF92BF92CF92DF92EF92FF920F931F9370
:1006C000CF93DF93CDB7DEB767970FB6F894DEBF51
:1006D0000FBECDBF9F8B8E8B8E010A5E1F4FC80150
:1006E0000E94E601982EC8010E94E601D82EC8019A
:1006F0000E94E601C82ECE0101967C015C01C80172
:100700000E94E601F70181937F01E017F107B9F735
:10071000692D8BEB92E00E94651495014C2D6D2D97
:100720008BEB92E00E94871467960FB6F894DEBFB9
:100730000FBECDBFDF91CF911F910F91FF90EF9032
:10074000DF90CF90BF90AF909F9008951F93CF936D
:10075000DF9300D01F92CDB7DEB79A838983CE0195
:1007600001960E94E601682FCE0101966B830E94DC
:10077000E601182FCE0101960E94E601482F6B81F9
:100780008BEB92E04B830E9465144B81612F8BEBC6
:1007900092E00E943C150F900F900F90DF91CF9147
:1007A0001F9108951F93CF93DF9300D01F92CDB771
:1007B000DEB79A838983CE0101960E94E601682FF5
:1007C000CE0101966B830E94E601182FCE0101969F
:1007D0000E94E601482F6B818BEB92E04B830E94D5
:1007E00065144B81612F8BEB92E00E9463150F9093
:1007F0000F900F90DF91CF911F910895CF93DF93CA
:1008000000D0CDB7DEB79A838983CE0101960E94CE
:10081000E601682F8BEB92E00E9465148BEB92E06F
:100820000E9467140F900F90DF91CF9108950F935E
:100830001F93CF93DF9300D01F92CDB7DEB79A837B
:100840008983CE0101960E94E601682FCE010196B0
:100850006B830E94E6018C016B8189E392E00E9428
:100860009F0EB80189E392E00E94C90E0F900F908D
:100870000F90DF91CF911F910F9108950F931F93C8
:10088000CF93DF9300D01F92CDB7DEB79A838983D1
:10089000CE0101960E94E601682FCE0101966B837E
:1008A0000E94E6018C016B8189E392E00E949F0E19
:1008B000B80189E392E00E9465100F900F900F90AD
:1008C000DF91CF911F910F910895EF92FF921F93A7
:1008D000CF93DF9300D01F92CDB7DEB79A83898381
:1008E000CE0101960E94E601682FCE0101966B832E
:1008F0000E94E601182FCE0101960E94E6017C01BC
:100900006B8189E392E00E949F0E9701442737FD97
:100910004095542F612F89E392E00E9412100F90AE
:100920000F900F90DF91CF911F91FF90EF9008955E
:10093000EF92FF921F93CF93DF9300D01F92CDB71A
:10094000DEB79A838983CE0101960E94E601682F63
:10095000CE0101966B830E94E601182FCE0101960D
:100960000E94E6017C016B8189E392E00E949F0E68
:100970009701442737FD4095542F612F89E392E07A
:100980000E94BF0F0F900F900F90DF91CF911F919A
:10099000FF90EF900895CF93DF9300D0CDB7DEB7EF
:1009A0009A838983CE0101960E94E601682F89E32C
:1009B00092E00E949F0E89E392E00E94990F0F90AF
:1009C0000F90DF91CF910895CF93DF9300D0CDB7F3
:1009D000DEB79A838983CE0101960E94E601682FD3
:1009E00089E392E00E949F0E89E392E00E943B0F10
:1009F000AB01BC012AE030E08AED92E00E941D27A5
:100A00000F900F90DF91CF910895CF93DF9300D097
:100A1000CDB7DEB79A838983CE0101960E94E601A5
:100A2000682F89E392E00E949F0E89E392E00E9482
:100A3000A40F0F900F90DF91CF9108951F93CF9344
:100A4000DF9300D01F92CDB7DEB79A838983CE01A2
:100A500001960E94E601682FCE0101966B830E94E9
:100A6000E601182F6B8180E392E00E946C1C612FDD
:100A700080E392E00E946E1C0F900F900F90DF9128
:100A8000CF911F910895CF93DF9300D0CDB7DEB7FC
:100A90009A838983CE0101960E94E601682F80E344
:100AA00092E00E946C1C80E392E00E94321D0F9045
:100AB0000F90DF91CF910895CF93DF9300D0CDB702
:100AC000DEB79A838983CE0101960E94E601682FE2
:100AD00080E392E00E946C1C80E392E00E94521D31
:100AE0000F900F90DF91CF910895CF93DF9300D0B7
:100AF000CDB7DEB79A838983CE0101960E94E601C5
:100B0000682F80E392E00E946C1C80E392E00E94D8
:100B1000421D0F900F90DF91CF9108951F93CF93B7
:100B2000DF9300D01F92CDB7DEB79A838983CE01C1
:100B300001960E94E601682FCE0101966B830E9408
:100B4000E601182F6B8180E392E00E946C1C612FFC
:100B500080E392E00E948B1C0F900F900F90DF912A
:100B6000CF911F9108950F931F93CF93DF9300D0E0
:100B70001F92CDB7DEB79A838983CE0101960E947A
:100B8000E601682FCE0101966B830E94E6018C017D
:100B90006B8180E392E00E946C1CA801662757FDE0
:100BA0006095762F80E392E00E94A81C0F900F9032
:100BB0000F90DF91CF911F910F9108950F931F9385
:100BC000CF93DF9300D01F92CDB7DEB79A8389838E
:100BD000CE0101960E94E601682FCE0101966B833B
:100BE0000E94E6018C016B8180E392E00E946C1C04
:100BF000A801662757FD6095762F80E392E00E945A
:100C0000F11C0F900F900F90DF91CF911F910F91DA
:100C100008951F93CF93DF9300D01F92CDB7DEB717
:100C20009A838983CE0101960E94E601682FCE0146
:100C300001966B830E94E601182F6B8186E892E093
:100C40000E942B0E612F86E892E00E947A0E4AE005
:100C500050E0BC018AED92E00E9405270F900F90B2
:100C60000F90DF91CF911F9108951F93CF93DF9342
:100C700000D01F92CDB7DEB79A838983CE0101964B
:100C80000E94E601682FCE0101966B830E94E60167
:100C9000182F6B8186E492E00E94D910612F86E4C0
:100CA00092E00E943E13AB01BC0122E030E08AEDED
:100CB00092E00E943E280F900F900F90DF91CF910D
:100CC0001F9108951F93CF93DF9300D01F92CDB74C
:100CD000DEB79A838983CE0101960E94E601682FD0
:100CE000CE0101966B830E94E601182FCE0101967A
:100CF0000E94E601482F6B8186E292E04B830E94BE
:100D0000E60C4B81612F86E292E00E94E80C0F9086
:100D10000F900F90DF91CF911F910895EF920F9355
:100D20001F93CF93DF9300D000D01F92CDB7DEB7D3
:100D30009A838983CE0101960E94E601682FCE0135
:100D400001966D830E94E601182FCE0101960E9444
:100D5000E601482FCE0101964C830E94E601282F20
:100D6000CE0101962B830E94E601082FCE01019649
:100D70000E94E601E82E6D8186E292E00E94E60C78
:100D80002B814C81612F86E292E00E940D0D0F9025
:100D90000F900F900F900F90DF91CF911F910F91B7
:100DA000EF9008951F93CF93DF9300D01F92CDB79C
:100DB000DEB79A838983CE0101960E94E601682FEF
:100DC000CE0101966B830E94E601182F6B8186E2AB
:100DD00092E00E94E60C612F86E292E00E944C0DA8
:100DE000AB01BC0122E030E08AED92E00E943E2897
:100DF0000F900F900F90DF91CF911F9108951F9347
:100E0000CF93DF9300D01F92CDB7DEB79A8389834B
:100E1000CE0101960E94E601682FCE0101966B83F8
:100E20000E94E601182FCE0101960E94E601482F8C
:100E30006B8186E292E04B830E94E60C4B81612F2E
:100E400086E292E00E94BF0D0F900F900F90DF910D
:100E5000CF911F9108951F93CF93DF9300D01F92DE
:100E6000CDB7DEB79A838983CE0101960E94E60151
:100E7000682FCE0101966B830E94E601182F6B81CB
:100E800086E292E00E94E60C612F86E292E00E94E8
:100E9000E70D682F70E04AE050E08AED92E00E9492
:100EA00005270F900F900F90DF91CF911F9108951C
:100EB0001F93CF93DF9300D01F92CDB7DEB79A83F5
:100EC0008983CE0101960E94E601682FCE0101962A
:100ED0006B830E94E601182F6B8186E292E00E94EC
:100EE000E60C612F86E292E00E94950D4AE050E008
:100EF000682F8AED92E00E943C270F900F900F9090
:100F0000DF91CF911F910895CF93DF93EC010E9461
:100F1000940188819981DF91CF910C94B02DCF926B
:100F2000DF92EF92FF921F93CF93DF9300D0CDB764
:100F3000DEB79A838983CE0101960E94E601182FBD
:100F4000CE0101960E9484076B017C01612F88E924
:100F500092E00E94D60AB701A60188E992E00E94B9
:100F6000210B0F900F90DF91CF911F91FF90EF9089
:100F7000DF90CF900895CF92DF92EF92FF921F9370
:100F8000CF93DF9300D0CDB7DEB79A838983CE01AC
:100F900001960E94E601182FCE0101960E94840757
:100FA0006B017C01612F8BEB92E00E946514B7010D
:100FB000A6018BEB92E00E9416160F900F90DF9126
:100FC000CF911F91FF90EF90DF90CF900895CF9336
:100FD000DF93EC0101960E94B42DFC013197E635B8
:100FE000F10508F079C0EC5CFF4F0C94552CE1E45E
:100FF000F2E06EC0ECE7F2E06BC0ECE9F2E068C052
:10100000E1EAF1E065C0E0E2F2E062C0E0ECF2E0CB
:101010005FC0E1EFF1E05CC0EFEDF8E059C0E7E15F
:10102000F4E056C0EEE3F4E053C0E5E6F4E050C06F
:10103000E8E9F4E04DC0EBECF4E04AC0E4EEF4E0A3
:1010400047C0E5E0F5E044C0ECE5F5E041C0E5E788
:10105000F5E03EC0EEEDF5E03BC0E3EBF5E038C077
:10106000E3E4F5E035C0EEE8F5E032C0EEE1F5E0AE
:101070002FC0EBEBF7E02CC0E4E2F3E029C0E7E59A
:10108000F3E026C0E6EAF3E023C0E2EDF3E020C09F
:10109000EEEFF3E01DC0E9E0F6E01AC0E5E3F6E0AC
:1010A00017C0EFE8F7E014C0E2E6F6E011C0EEE8A2
:1010B000F6E00EC0E2EDF6E00BC0EFEFF6E008C0A0
:1010C000EBE2F7E005C0E8E5F7E002C0EAE5F2E0B0
:1010D000CE01DF91CF910994DF91CF910895FC016A
:1010E00020812D3411F40C94E707089560E080E12D
:1010F0000E94E92360E081E10E94E92360E082E14F
:101100000E94E92360E083E10C94E92340E855E282
:1011100060E070E08AED92E00E94CF210C947608A6
:10112000CF93DF9320E048E067E08AED92E00E94F1
:101130009F2186ED92E00E94821960E08BEB92E0A5
:101140000E94611460E08CEA92E00E94621D60E0FF
:1011500085EA92E00E94811B60E088E992E00E94AB
:10116000E80A60E086E892E00E940E0E60E086E405
:1011700092E00E94991060E089E392E00E94AD0E37
:1011800060E080E392E00E94581C60E086E292E01A
:101190000E94D20CC4E1D2E0CE010E94A11E23968F
:1011A00082E0C632D807C1F7DF91CF91089585EA72
:1011B00092E00E944C1C8AED92E00C9446217F92B2
:1011C0008F929F92AF92BF92CF92DF92EF92FF9257
:1011D0000F931F93CF93DF9300D0CDB7DEB79A83E1
:1011E0008983CDB6DEB6CE0101960E94E601782E47
:1011F000CE0101960E94E601882ECE0101960E9442
:10120000E601A82E982E8DB79EB78A1991090FB6C0
:10121000F8949EBF0FBE8DBF0DB71EB70F5F1F4F57
:10122000B02E78018E2D8B19891540F4CE010196D0
:101230000E94E601F70181937F01F4CF672D86EDCF
:1012400092E00E94831998014A2D682D86ED92E064
:101250000E94F61AEB2CF12E8E2D8B19891540F475
:10126000F70161917F018AED92E00E94FA1FF4CFAD
:101270008AED92E00E945E260FB6F894DEBE0FBEA5
:10128000CDBE0F900F90DF91CF911F910F91FF90E6
:10129000EF90DF90CF90BF90AF909F908F907F9016
:1012A00008951F93CF93DF93C0E8D0E010E28AED5A
:1012B00092E00E946620892B81F18AED92E00E94E3
:1012C000D91F20910C0230910D028A30C1F4C9015E
:1012D0000197FC01E457FE4F40814D3011F49C0111
:1012E000F6CFF901E457FE4F1083118210920D02E0
:1012F00010920C028CE891E00E946F08D8CFF9019F
:10130000E457FE4F8083C9010196BE010E94002C64
:1013100090930D0280930C02CACFDF91CF911F9161
:1013200008950C945109089570E0FB01EA5AFE4FAC
:10133000E491DC01EC93FB01E659FE4FE491F0E00F
:10134000EE0FFF1FE258FE4F25913491FC013283CE
:10135000218308951F93CF93DF93FC011081C181F6
:10136000D2819981812F8095892389838A81812BDC
:101370008A838AE090E00E94FE229881912381E096
:1013800009F480E0DF91CF911F910895FF920F93B0
:101390001F93CF93DF93FC011081C181D281F89418
:1013A0008981F12EF0948F2189838A81812B8A8310
:1013B00078940DE7015041F182E090E00E94FE2216
:1013C00088818123B9F3F8948A818F218A83898166
:1013D000812B8983789480EE91E00E94FE22F8941C
:1013E00089818F2189838A81812B8A8386E490E099
:1013F0000E94FE228881812301E009F000E07894B8
:101400008AE991E00E94FE22802FDF91CF911F9107
:101410000F91FF9008951F93CF93DF93FC011081EC
:10142000C181D281912F909560FF12C0F8948A817A
:1014300089238A838981812B89838AE090E00E94B5
:10144000FE228A81812B8A83789487E390E011C001
:10145000F8948A8189238A838981812B898381E415
:1014600090E00E94FE228A81812B8A83789485E015
:1014700090E0DF91CF911F910C94FE220F931F9368
:10148000CF93DF93FC011081C181D281F8948981CF
:10149000812B89838A81012F009580238A8383E0B1
:1014A00090E00E94FE228981802389838A81812B9A
:1014B0008A838AE090E00E94FE22C881789485E3C6
:1014C00090E00E94FE221C2381E009F480E0DF917D
:1014D000CF911F910F910895CF92DF92EF92FF92DB
:1014E0000F931F93CF93DF931F92CDB7DEB76C019D
:1014F000E62E08E010E0FF24F39461E09F2D9E218A
:1015000009F460E0C60149830E940B0AFF0C0150F8
:10151000110949810115110581F741111DC0F89488
:10152000D6011196ED91FC91129791818C91809545
:10153000892381831196ED91FC91129782819C9170
:10154000892B82831196ED91FC91129792818C9157
:1015500080958923828378940F90DF91CF911F919A
:101560000F91FF90EF90DF90CF900895EF92FF9250
:101570000F931F93CF93DF938C01C8E0D0E0F12C41
:10158000EE24E394C8010E943E0A8111FE28EE0C6D
:101590002197C1F78F2DDF91CF911F910F91FF9070
:1015A000EF90089540E06CEC0C946C0ACF93DF93BD
:1015B000EC010E94831981E08C8740E050E46CE1EB
:1015C00076E4488759876A877B87DF91CF910895B2
:1015D0000F931F93CF93DF931F92CDB7DEB78C018C
:1015E00069830E9482196981C8010F90DF91CF91B0
:1015F0001F910F910C94D60ACF93DF93EC010E94B8
:101600009D1981111BC062E0CE010E943A1ACE01E1
:101610000E949D19811112C06C81CE010E943A1A5C
:101620006D81CE010E943A1A6E81CE010E943A1A53
:101630006F81CE01DF91CF910C943A1ADF91CF9157
:1016400008952F923F924F925F926F927F928F9266
:101650009F92AF92BF92CF92DF92EF92FF920F9341
:101660001F93CF93DF93CDB7DEB72F970FB6F894C4
:10167000DEBF0FBECDBF8C012A013B01FC0184857A
:10168000882311F014860CC09A01AB01F801608523
:101690007185828593850E945F29882309F469C139
:1016A000F8014086518662867386CE0101969C873A
:1016B0008B878AE0EB85FC8511928A95E9F720E01B
:1016C0003CE34CE156E4C301B2010E94262B87FDA6
:1016D00004C089E0F80184830EC020E030EC49E7C3
:1016E00054ECC301B2010E945F29181644F080E156
:1016F000F801848389E0858386838783D3C020E0D3
:1017000030E0A901C301B2010E945F29811107C025
:1017100080E4F8018483858386831782C3C020E038
:1017200030E0A901C301B2010E945F2987FF07C011
:1017300077FA709477F87094F1E0FD8701C01D8608
:1017400020E030E04AE754E4C301B2010E9463297B
:101750000E94D0296983C301B2010E94CB299B0159
:10176000CB0168EE73E00E94002CE4E6F0E0BF01DC
:101770000E94002C6A83C901BF010E94002C4AE02C
:10178000E42EF12CB7010E94002C6B83C901B70134
:101790000E94002C5C018C8320E030E040E251E4A8
:1017A000C301B2010E94312B0E94CB29CB01B701AA
:1017B0000E94002C6C018D8320E030E048EC52E464
:1017C000C301B2010E94312B0E94CB29CB01B7018A
:1017D0000E94002C4C018E8320E030E04AE754E464
:1017E000C301B2010E94312B0E94CB29CB01B7016A
:1017F0000E94002C9F878E878F83212CE22CF12C56
:10180000E1E0F0E0EC0FFD1FEE0DFF1D3080311028
:1018100002C02394F3CF20E030E040E85FE3C3014F
:10182000B2010E94262B87FD10C0A32CFE01EE0DF5
:10183000FF1DC280FE01EE0DFF1D8380FE01EE0D37
:10184000FF1D848124E0221907C0BB24DD249924D4
:101850008E859F85992721E03D85313059F480E1BF
:10186000F8018483A582C6828782223051F021301C
:10187000C9F40DC0F801A482C58286828783233013
:1018800021F48681806286830DC0223029F4F8011C
:1018900085818062858306C0213021F4F80184812E
:1018A00080628483F801848185FF12C08581811163
:1018B00048C08681811145C08781811142C0F801ED
:1018C00084818F70878380E48483858386831EC0B0
:1018D000F801858185FF0AC08681811143C0878117
:1018E000811140C0F80185818F7035C0F801868173
:1018F00085FF0CC08781811109C086818F70878325
:10190000858186838481858380E48483C8012F96C2
:101910000FB6F894DEBF0FBECDBFDF91CF911F9100
:101920000F91FF90EF90DF90CF90BF90AF909F907E
:101930008F907F906F905F904F903F902F900C947E
:10194000FC0AF801868181110DC0F801878181119F
:1019500009C0F801858187838481868380E484833C
:101960008583D4CFF80187818111D0CFF80186819A
:10197000C6CF2F960FB6F894DEBF0FBECDBFDF9156
:10198000CF911F910F91FF90EF90DF90CF90BF907C
:10199000AF909F908F907F906F905F904F903F900F
:1019A0002F9008950F931F93CF93DF931F92CDB77E
:1019B000DEB78C0169830E9482196981C8010F908A
:1019C000DF91CF911F910F910C9483190C9483197F
:1019D0000F931F93CF93DF93EC01062F142F0E94D8
:1019E0009D19811115C062E0CE010E943A1ACE0104
:1019F0000E949D1981110CC0602FCE010E943A1ADD
:101A0000612FCE01DF91CF911F910F910C943A1A63
:101A1000DF91CF911F910F910895DF92EF92FF9286
:101A20000F931F93CF93DF93EC01D62EF42E122F3A
:101A30000E949D19811128C063E0CE010E943A1ACC
:101A4000CE010E949D1981111FC06D2DCE010E94F3
:101A50003A1A6F2DCE010E943A1A612FCE010E94D0
:101A60003A1A602FCE010E943A1A6E2DCE010E94C2
:101A70003A1A80ED97E0DF91CF911F910F91FF907F
:101A8000EF90DF900C94FE22DF91CF911F910F9188
:101A9000FF90EF90DF9008950F931F93CF93DF9304
:101AA0001F92CDB7DEB78C01653028F020E030E022
:101AB00050E040E031C069830E949D196981811125
:101AC000F5CF6D5FC8010E943A1AC8010E94CB1978
:101AD000C8010E94951AF8018483C8010E94951AD2
:101AE000F8018583682F70E0762F66278481682B44
:101AF00080E090E00E94FC2920E030E048EC52E4D5
:101B00000E9463299B01AB01BC01F8014683578306
:101B100060877187582F492FB901852F942F0F9017
:101B2000DF91CF911F910F9108950F931F93CF9342
:101B3000DF931F92CDB7DEB78C01653010F080E0E7
:101B400018C069830E949D1969818111F8CF695F6E
:101B5000C8010E943A1AC8010E94CB19C8010E940C
:101B6000951AF8018483C8010E94951AF8018583AB
:101B700084810F90DF91CF911F910F9108951F9352
:101B8000CF93DF93EC01162F411102C01C8202C0DB
:101B900081E08C83CE010E949D19811114C06CE0FC
:101BA000CE010E943A1ACE010E949D1981110BC0EC
:101BB000612FCE010E943A1A6C81CE01DF91CF9144
:101BC0001F910C943A1ADF91CF911F9108950F93B2
:101BD0001F93CF93DF931F92CDB7DEB78C01653093
:101BE000B0F469830E949D196981811110C0645FFE
:101BF000C8010E943A1AC8010E94CB19C8010E946C
:101C0000951A982FF801848381E0911101C080E03A
:101C10000F90DF91CF911F910F9108950F931F9314
:101C2000CF93DF931F92CDB7DEB78C0169830E94FB
:101C30008219F80115821482178216821186108685
:101C4000138612866981C8010F90DF91CF911F9191
:101C50000F910C9483190C9483190F931F93CF93B6
:101C6000DF93EC010E949D1981112DC062E0CE012D
:101C70000E943A1ACE010E94CB1900E010E0CE017A
:101C80000E94951AFE01E00FF11F84870F5F1F4F1E
:101C900006301105A1F78C8590E0982F88272D85B7
:101CA000822B9D838C838E8590E0982F88272F85AB
:101CB000822B9F838E83888990E0982F882729899B
:101CC000822B99878887DF91CF911F910F9108957B
:101CD000FC01848195819C012A55310937FD03C09F
:101CE0003387228704C0825F9E4F938782878285D5
:101CF000938508950F931F93CF93DF931F92CDB7D2
:101D0000DEB78C0169830E942D0E6981662331F054
:101D1000613061F4F801868197810BC0C8010F9092
:101D2000DF91CF911F910F910C94680EF80180857F
:101D300091850F90DF91CF911F910F910895CF93CF
:101D4000DF93EC010E94831981E088878CE291E0A7
:101D50009F838E83DF91CF9108950F931F93CF932D
:101D6000DF931F92CDB7DEB78C0169830E94821981
:101D7000F801178216821086118612861386148641
:101D80006981C8010F90DF91CF911F910F910C9441
:101D90009F0ECF92DF92EF92FF92CF93DF93EC01F1
:101DA0006F3F710519F014F06FEF70E061308FEF45
:101DB000780714F461E07FEF8E819F818617970783
:101DC00009F452C07F836E836B01EE24D7FCE0944C
:101DD000FE2C6E3F7F4FCCF0CE010E949D1962E039
:101DE000CE010E943A1ACE010E949D196885CE014B
:101DF0000E943A1AC701B6010E94FE2923E333E389
:101E000043E250E40E94632920C0CE010E949D1944
:101E100062E0CE010E943A1ACE010E949D196885A7
:101E2000CE010E943A1AC701B6010E94FE2923E39F
:101E300033E343E250E40E9463299B01AC0160E07C
:101E400070E088EC92E40E9498280E94D029CE018C
:101E50000E943A1A84EF91E0DF91CF91FF90EF90CA
:101E6000DF90CF900C94FE22DF91CF91FF90EF9006
:101E7000DF90CF9008950F931F93CF93DF93EC01E2
:101E80000E949D1963E0CE010E943A1ACE010E9481
:101E9000CB19CE010E94951A90E0A0E0B0E08987AE
:101EA0009A87AB87BC87CE010E94951A90E0A0E08C
:101EB000B0E0BA2FA92F982F882749855A856B85BE
:101EC0007C85480F591F6A1F7B1F49875A876B877C
:101ED0007C87CE010E94951A90E0A0E0B0E0DC0182
:101EE0009927882749855A856B857C85480F591F16
:101EF0006A1F7B1F49875A876B877C87CE010E94A8
:101F0000951A90E0A0E0B0E0982F88277727662701
:101F100009851A852B853C85600F711F821F931FD1
:101F200069877A878B879C87DF91CF911F910F916B
:101F30000895CF93DF93EC010E949D1964E0CE01D8
:101F4000DF91CF910C943A1ACF93DF93EC010E946A
:101F50009D1962E0CE010E943A1ACE010E949D199D
:101F60006885CE010E943A1A60E0CE010E943A1ABA
:101F70008CE291E09F838E83DF91CF910895CF9281
:101F8000DF92EF92FF921F93CF93DF93EC01162F16
:101F900069017A010E949D1965E0CE010E943A1AFA
:101FA000CE010E949D19612F70E080E090E00E94B8
:101FB000FE2923E333E343E250E40E9463290E94B5
:101FC000D029CE010E943A1A6C2DCE010E943A1AF5
:101FD0009927F7FC9A958F2D7E2D6D2DCE010E94AD
:101FE0003A1AB701992777FD9095892FCE010E9463
:101FF0003A1A6F2D992767FD9095792F892FCE0179
:102000000E943A1A84EF91E00E94FE228CE291E055
:102010009F838E83DF91CF911F91FF90EF90DF9090
:10202000CF900895CF92DF92EF92FF921F93CF93BC
:10203000DF93EC01162F69017A010E949D1966E079
:10204000CE010E943A1ACE010E949D19612F70E0C4
:1020500080E090E00E94FE2923E333E343E250E472
:102060000E9463290E94D029CE010E943A1A6C2D49
:10207000CE010E943A1A9927F7FC9A958F2D7E2D52
:102080006D2DCE010E943A1AB701992777FD9095E0
:10209000892FCE010E943A1A6F2D992767FD9095DE
:1020A000792F892FCE010E943A1A84EF91E00E9485
:1020B000FE228CE291E09F838E83DF91CF911F916E
:1020C000FF90EF90DF90CF9008950F931F93CF93E1
:1020D000DF93EC018B018E819F818617970721F199
:1020E0006115710549F460E070E0CE01DF91CF9198
:1020F0001F910F910C94C90E7F836E83CE010E94B5
:102100009D1967E0CE010E943A1ACE010E949D19E6
:10211000602FCE010E943A1A612FCE01DF91CF913C
:102120001F910F910C943A1ADF91CF911F910F914B
:1021300008951F93CF93DF93EC01162F0E9482190D
:1021400040E050E063E872E44C835D836E837F83FC
:10215000188619861A861B861C861D861E861F8673
:10216000188A198A1A8A1B8A1C8A1D8A1E8A1F8A43
:10217000188E198E1A8E1B8E1C8E1D8E1E8E1F8E13
:1021800019A218A21BA21AA21DA21CA21EA21FA263
:1021900018A619A61AA61BA61CA61DA61EA61FA633
:1021A00018AA19AA612FCE01DF91CF911F910C942B
:1021B00083190C9483192F923F924F925F926F92E2
:1021C0007F928F929F92AF92BF92CF92DF92EF92C7
:1021D000FF920F931F93CF93DF93CDB7DEB768972E
:1021E0000FB6F894DEBF0FBECDBF1C010E94A72220
:1021F0004B015C01C090F902D090FA02E090FB0222
:10220000F090FC020E94A7226093F9027093FA02F8
:102210008093FB029093FC02C1010E949D198111E1
:1022200014C262E0C1010E943A1AC1010E94CB1996
:1022300000E010E0C1010E94951AF101E00FF11FCA
:1022400082AB0F5F1F4F0E301105A1F7C501B4011E
:102250006C197D098E099F090E94FC2920E030E05D
:102260004AE754E40E9463296B017C01D101D296B4
:102270004C90D297512C542C4424D3968C91D397C4
:10228000482A91965C924E929097D4966C90D497EF
:10229000712C762C6624D5968C91D597682A9396C6
:1022A0007C926E929297D6960C91D69710E0102F52
:1022B0000027D7968C91D797082B95961C930E9351
:1022C000949714968D909D90AD90BC901797DA9648
:1022D0006C91DA9770E0762F6627DB968C91682BED
:1022E000882777FD8095982F0E94FE29F10126A16D
:1022F00037A140A551A50E949828A50194010E94EC
:1023000063296D837E838F839887D10154966D9363
:102310007D938D939C935797DC966C91DC9770E03E
:10232000762F6627DD968C91682B882777FD809520
:10233000982F0E94FE29F10122A533A544A555A599
:102340000E949828A50194010E94632969877A87D1
:102350008B879C87D10158966D937D938D939C9329
:102360005B97DE966C91DE9770E0762F6627DF969E
:102370008C91682B882777FD8095982F0E94FE29E5
:10238000F10126A537A540A951A90E949828A501C9
:1023900094010E9463296D877E878F87988BD10176
:1023A0005C966D937D938D939C935F97B301882783
:1023B00077FD8095982F0E94FE2969837A838B830D
:1023C0009C83B801882777FD8095982F0E94FE296D
:1023D0009B01AC010E94312B698B7A8B8B8B9C8B80
:1023E00029813A814B815C81CA01B9010E94312B5C
:1023F00029893A894B895C890E9499280E94982BE7
:102400009B01AC01B201882777FD8095982F2D8B19
:102410003E8B4F8B588F0E94FE294B015C012D890A
:102420003E894F89588D0E940C2920E030E044E31A
:1024300053E40E94312B2AED3FE049E450E40E942E
:1024400063292B013C01A5019401C501B4010E943F
:10245000312B29893A894B895C890E9499280E94ED
:10246000982B9B01AC0169817A818B819C810E94B0
:102470000C2920E030E044E353E40E94312B2AEDA4
:102480003FE049E450E40E9463294B015C01A7014D
:10249000960169857A858B859C851016110624F531
:1024A0000E94312B9B01AC01F10160857185828511
:1024B00093850E949828D10118966D937D938D93F2
:1024C0009C931B97A70196016D817E818F819885D2
:1024D0000E94312B9B01AC01F101648575858685D5
:1024E00097850E94992823C00E94312B9B01AC0143
:1024F000F10160857185828593850E949928D101BB
:1025000018966D937D938D939C931B97A7019601CD
:102510006D817E818F8198850E94312B9B01AC015A
:10252000F10164857585868597850E949828D1017B
:102530001C966D937D938D939C931F97A701960195
:102540006D857E858F8598890E94312BF1012089C8
:102550003189428953890E9499286B017C0120E0CE
:1025600030E044EB53E40E9463290E94392A20E0C2
:1025700030E044EB53E40E94312B9B01AC01C701D6
:10258000B6010E9498286B017C0120E030E044E312
:1025900053E40E94262B181644F0D1015096CD9298
:1025A000DD92ED92FC9253970DC020E030E044EBB9
:1025B00053E4C701B6010E949828F101608B718B2A
:1025C000828B938B28E431EE4AE75FE3D1011C96BE
:1025D0006D917D918D919C911F970E94312B6B0184
:1025E0007C012AE037ED43EA5CE3C501B4010E94B7
:1025F000312B9B01AC01C701B6010E949928F10162
:10260000648775878687978728E431EE4AE75FE31A
:1026100060857185828593850E94312B6B017C01D9
:102620002AE037ED43EA5CE3C301B2010E94312B9B
:102630009B01AC01C701B6010E949928D1011896EF
:102640006D937D938D939C931B9768960FB6F8942A
:10265000DEBF0FBECDBFDF91CF911F910F91FF90D5
:10266000EF90DF90CF90BF90AF909F908F907F9032
:102670006F905F904F903F902F9008950F931F930E
:10268000CF93DF931F92CDB7DEB78C0169830E9491
:10269000DB1069816230F9F068F46623B1F06130D3
:1026A00061F5F80180859185A285B385BC01CD01D6
:1026B000905826C06430D9F0A0F06530F1F4F801EC
:1026C000648D758D868D978D1BC0F8016485758529
:1026D0008685978515C0F8016089718982899389FB
:1026E0000FC0F801648975898689978909C0F80146
:1026F000608D718D828D938D03C060E070E0CB01A1
:102700000F90DF91CF911F910F9108951F920F921B
:102710000FB60F9211240F931F932F933F934F9354
:102720005F936F937F938F939F93AF93BF93CF9359
:10273000EF93FF938091FD020E945824C82F2091AF
:102740000403309105032F5F3F4F3093050320931F
:10275000040380916A03843618F085E08093FF02B9
:102760009091FF02933079F018F4923039F070C0F4
:10277000943011F1953009F44AC06AC0C11168C0A3
:1027800010926A0329C0C13009F062C0E0916A0367
:1027900081E08E0F80936A03F0E0809104039091B2
:1027A0000503E250FD4F8087109205031092040349
:1027B00084E08093FF024CC0C11114C0E0916A0311
:1027C00081E08E0F80936A03F0E080910403909182
:1027D0000503E250FD4F8087109205031092040319
:1027E00083E0E7CF8091040390910503853691053E
:1027F00078F185E08093FF020E94A7226093000396
:1028000070930103809302039093030321C00E94FD
:10281000A72200910003109101032091020330913F
:102820000303601B710B820B930B693C71058105DF
:10283000910540F010926A03109205031092040370
:1028400082E0B7CFC11104C01092050310920403B7
:10285000FF91EF91CF91BF91AF919F918F917F9118
:102860006F915F914F913F912F911F910F910F9019
:102870000FBE0F901F9018950F931F93CF93DF9368
:1028800000D01F92CDB7DEB78C012B834A836983BA
:102890000E948219F801349685E1DF011D928A9524
:1028A000E9F74A81F801418F2B81228F6981C801A4
:1028B0000F900F900F90DF91CF911F910F910C947B
:1028C000831927E045E10C943C140C948319CF93B1
:1028D000DF93EC01298D80E090E0821730F4FE0157
:1028E000E80FF91F14820196F8CFCE010E949D19BE
:1028F00081110AC065E0CE010E943A1A88E893E18E
:10290000DF91CF910C94FE22DF91CF9108955F92D9
:102910006F927F928F929F92AF92BF92CF92DF92EF
:10292000EF92FF920F931F93CF93DF93EC01542EFE
:102930004901E98CF12C8A8DA62EBB24A7FCB0940A
:10294000222733272E193F092A153B0594F4AE148C
:10295000BF047CF490E0C42EDD24C7FCD094222771
:102960003327281B390B2C153D051CF4C816D90636
:1029700094F0CE01DF91CF911F910F91FF90EF90D6
:10298000DF90CF90BF90AF909F908F907F906F908F
:102990005F900C946714CE010E949D1962E0CE01F5
:1029A0000E943A1ACE010E949D19002711270A1988
:1029B0001B0937016A187B08AA24BB24AC18BD0880
:1029C0000615170504F517FD17C00E151F05A4F40D
:1029D000F401E00FF11F608157FC06C00C2C01C010
:1029E000660F0A94EAF709C070E00A2C02C07595D8
:1029F00067950A94E2F701C060E0CE010E943A1A9E
:102A00000F5F1F4FDDCFDF91CF911F910F91FF908F
:102A1000EF90DF90CF90BF90AF909F908F907F907E
:102A20006F905F9008950F931F93CF93DF93EC0106
:102A3000162F042F898D6817D0F4CE010E949D199E
:102A4000811115C063E0CE010E943A1ACE010E94A6
:102A50009D1981110CC0612FCE010E943A1A602F7E
:102A6000CE01DF91CF911F910F910C943A1ADF9113
:102A7000CF911F910F910895CF93DF93E62FF0E050
:102A8000DC0159962C91599730E0E217F307C4F412
:102A9000242F30E05A96AC91B0E02A173B0784F41B
:102AA000E80FF91F548121E030E001C0220F4A9560
:102AB000EAF7522B54834481DF91CF910C94131584
:102AC000DF91CF910895CF93DF93E62FF0E0DC0103
:102AD00059962C91599730E0E217F307CCF4242F44
:102AE00030E05A96AC91B0E02A173B078CF4E80F1F
:102AF000F91F548121E030E001C0220F4A95EAF726
:102B00002095252324834481DF91CF910C941315C4
:102B1000DF91CF910895FF920F931F93CF93DF938F
:102B2000EC01F62E042F122F0E949D1981111EC058
:102B300067E0CE010E943A1ACE010E949D198111D0
:102B400015C06F2DCE010E943A1A602FCE010E944F
:102B50003A1A612FCE010E943A1A88EB9BE0DF916E
:102B6000CF911F910F91FF900C94FE22DF91CF9196
:102B70001F910F91FF900895AF92BF92CF92DF9275
:102B8000EF92FF920F931F93CF93DF93EC01B62E3A
:102B9000A42E790100E010E0C62EDD24C7FCD094FD
:102BA000C8018C0D9D1D8B3F2FEF92071CF1298DC5
:102BB00030E08217930724F5F701208121110EC020
:102BC0008C01898D90E008171907D4F440E0602F3C
:102BD000CE010E9413150F5F1F4FF3CF21526B2DB3
:102BE000600F2E3518F023E040E001C04A2DCE01E1
:102BF0000E948B150A5F1F4FFFEFEF1AFF0AD0CF1D
:102C00001FEF1B0D1B143CF440E0612FCE010E940E
:102C10001315B12EF5CFDF91CF911F910F91FF903A
:102C2000EF90DF90CF90BF90AF9008952F923F929A
:102C30004F925F926F927F928F929F92AF92BF92CC
:102C4000CF92DF92EF92FF920F931F93CF93DF9378
:102C5000CDB7DEB76B970FB6F894DEBF0FBECDBF12
:102C60008C012A013B01CE0101969C8B8B8B8AE063
:102C7000EB89FC8911928A95E9F7CE010B969E8B20
:102C80008D8B88E0ED89FE8911928A95E9F720E025
:102C90003CE34CE156E4C301B2010E94262B87FDC0
:102CA0001BC028E140E06FEFC8010E948B1528E1AE
:102CB00040E064E0C8010E948B1528E140E069E033
:102CC000C8010E948B1528E140E06EE0C8010E9417
:102CD0008B1540E064E12DC020E030EC49E754EC76
:102CE000C301B2010E945F291816F4F128E140E007
:102CF00064E0C8010E948B1528E140E06AE0C80149
:102D00000E948B1528E140E06FE0C8010E948B15FE
:102D100048E060E0C8010E94131548E061E0C80186
:102D20000E94131548E062E0C8010E94131548E0B4
:102D300063E0C8016B960FB6F894DEBF0FBECDBF3F
:102D4000DF91CF911F910F91FF90EF90DF90CF9087
:102D5000BF90AF909F908F907F906F905F904F90BB
:102D60003F902F900C94131520E030E0A901C3018F
:102D7000B2010E945F29811130C023E040E060E091
:102D8000C8010E948B1523E040E065E0C8010E9465
:102D90008B1523E040E06AE0C8010E948B152FE00C
:102DA00040E06FE0C8016B960FB6F894DEBF0FBE2F
:102DB000CDBFDF91CF911F910F91FF90EF90DF90EA
:102DC000CF90BF90AF909F908F907F906F905F90CB
:102DD0004F903F902F900C948B1520E030E0A9018C
:102DE000C301B2010E945F2987FF07C077FA709480
:102DF00077F87094F1E0FF8B01C01F8A20E030E08B
:102E00004AE754E4C301B2010E9463290E94D02919
:102E10006983C301B2010E94CB299B01CB0168EEFB
:102E200073E00E94002CE4E6F0E0BF010E94002C59
:102E30006A83C901BF010E94002C4AE0E42EF12CF4
:102E4000B7010E94002C6B83C901B7010E94002CBE
:102E50006C018C8320E030E040E251E4C301B20118
:102E60000E94312B0E94CB29CB01B7010E94002C7C
:102E70005C018D8320E030E048EC52E4C301B201F4
:102E80000E94312B0E94CB29CB01B7010E94002C5C
:102E90004C018E8320E030E04AE754E4C301B201E4
:102EA0000E94312B0E94CB29CB01B7010E94002C3C
:102EB0009A8F898F8F83212CE22CF12CE1E0F0E0B6
:102EC000EC0FFD1FEE0DFF1D3080311002C023946A
:102ED000F3CF20E030E040E85FE3C301B2010E949D
:102EE000262B87FD1DC0832D90E09C878B87FE01DC
:102EF000EE0DFF1D828190E09E878D87FE01EE0D15
:102F0000FF1D838190E0988B8F87FE01EE0DFF1DE2
:102F1000848190E09A8B898B84E0B82EB21810C01F
:102F2000DD24DC86CB86BB24BE86AD869924988AB8
:102F30008F86898D9A8D99279A8B898BBB24B39420
:102F4000CB2CD12C8F89813009F0B6C020E030E045
:102F500048EC52E4C301B2010E94262B87FD09C050
:102F60002CE040E06FEFC8010E948B15B3E09B2E70
:102F700025C020E030E040E251E4C301B2010E94EC
:102F8000262BEF84F88887FD0BC0EF2849F72CE04B
:102F900040E064E0C8010E948B15A2E09A2E0EC0AA
:102FA000EF28F1F68D859E85892B89F72CE040E08E
:102FB00069E0C8010E948B1599249394C60101967B
:102FC000382E330C330C380E0196882E880C880C62
:102FD000880EFE013B965F016BE0E12CF12C892D00
:102FE00090E0988F8F8BEF89F88DEE16FF060CF02E
:102FF00070C1F5E02F2E260E93E099121AC0F5014C
:103000002081215FEC14FD0414F0655001C067506D
:1030100040E0C8010E948B1520E030E048EC52E40B
:10302000C301B2010E94262B87FF21C040E4632D1B
:1030300023C0F2E09F1224C0F5012081215FEC142F
:10304000FD040CF4625040E0C8010E948B1523E09F
:1030500040E06FEFC8010E948B1520E030E040E2B5
:1030600051E4C301B2010E94262B87FD03C040E05A
:1030700064E102C040E4682DC8010E94131514C029
:10308000F5012081215FEC14FD041CF040E0622D6D
:1030900002C06D5F40E0C8010E948B1523E040E054
:1030A00064E0C8010E948B15FFEFEF1AFF0A82E06F
:1030B000A80EB11C622D97CF20E030E04AE754E41F
:1030C000C301B2010E94262B87FD03C0E4E09E2EBF
:1030D00039C020E030E048EC52E4C301B2010E9464
:1030E000262BE988FA8887FD03C0EF2879F710C0FE
:1030F00020E030E040E251E4C301B2010E94262BFF
:1031000087FD09C0EF2811F78F859889892BA9F0D1
:1031100073E0972E17C020E030E040E85FE3C30182
:10312000B2010E94262BEF2889F68F859889892B7A
:1031300079F78D859E85892B19F062E0962E02C065
:10314000992493948B2C880C880C8B0CC6010196C7
:10315000382E330C330C380EFAE0F80DFF8B7E015D
:103160008BE0E80EF11C3BE0A12CB12CE92DF0E046
:10317000FA8FE98FE98DFA8DAE16BF060CF0A9C063
:1031800055E0252E230EF4E09F121BC0F70120818D
:10319000215FAC14BD0414F066EF01C064EF630F4F
:1031A00040E0C8010E948B1520E030E04AE754E47B
:1031B000C301B2010E94262B87FF7EC040E4682D28
:1031C0007DC0F3E09F1223C023E040E06FEFC80111
:1031D0003B8F0E948B153B8DF7012081215FAC1442
:1031E000BD0414F06BEF01C069EF630F40E0C8014C
:1031F0000E948B1520E030E048EC52E4C301B2019C
:103200000E94262B87FF58C040E4632D57C0F2E090
:1032100023E040E06FEFC8013B8F9F1225C00E9462
:103220008B1523E040E064E0C8010E948B153B8DC4
:10323000F7012081215FAC14BD041CF040E0632F36
:1032400003C06EEF630F40E0C8010E948B1520E0C1
:1032500030E040E251E4C301B2010E94262B87FF17
:103260002BC040E46F892AC00E948B1523E040E008
:1032700064E0C8010E948B1523E040E069E0C801CA
:103280000E948B153B8DF7012081215FAC14BD049A
:103290001CF040E0622D03C063E0630F40E0C80112
:1032A0000E948B1520E030E040E85FE3C301B201EB
:1032B0000E94262B87FD05C040E064E1C8010E9402
:1032C0001315FFEFAF1ABF0A82E0E80EF11C322D92
:1032D00051CF6B960FB6F894DEBF0FBECDBFDF9116
:1032E000CF911F910F91FF90EF90DF90CF90BF9003
:1032F000AF909F908F907F906F905F904F903F9096
:103300002F9008950895DC016C9370E0FB01EA5A58
:10331000FE4FE4911196EC931197FB01E659FE4F95
:10332000E491F0E0EE0FFF1FE258FE4F859194917B
:1033300013969C938E9312970895FF920F931F9369
:10334000CF93DF938C01FC01F180C281D38189810D
:103350008F2989839A818F2D809589238A8380EE96
:1033600091E00E94FE2260E0F80180810E94E92342
:1033700082E390E00E94FE22C88184E690E00E94F1
:10338000FE22FC2281E009F480E0DF91CF911F91C1
:103390000F91FF900895AF92BF92CF92DF92EF927C
:1033A000FF920F931F93CF93DF938C01FC01B180A9
:1033B000C281D3810E94A7226B017C018981AB2C41
:1033C000A0948A2189838A818B298A8388818B2191
:1033D00069F00E94A7226C197D098E099F09653644
:1033E00071058105910590F381E013C088818B21DF
:1033F000E9F389818B2989838A818A218A838EE1F5
:1034000090E00E94FE2260E0F80180810E94E923A2
:1034100080E0DF91CF911F910F91FF90EF90DF90AF
:10342000CF90BF90AF9008951F93CF93DF93EC019F
:10343000162FF89460E088810E94222461E0888140
:103440000E94E92385E090E00E94FE22612F88819E
:103450000E94222478948EE190E00E94FE2261E096
:1034600088810E94222485E090E0DF91CF911F9116
:103470000C94FE22EF92FF920F931F93CF93DF9352
:103480008C01C0E0D0E0E62EF12CB7010C2E02C07A
:10349000759567950A94E2F76170C8010E94141A45
:1034A0002196C830D10589F760E0F8018081DF916D
:1034B000CF911F910F91FF90EF900C94E923CF9241
:1034C000DF92EF92FF921F93CF93DF93FC01118164
:1034D000C281D3810E94A7226B017C018881812354
:1034E00081F4F8948EE190E00E94FE22C8817894E5
:1034F00088E290E00E94FE221C2381E071F480E0CB
:103500000CC00E94A7226C197D098E099F096430A6
:1035100071058105910528F7E1CFDF91CF911F91CA
:10352000FF90EF90DF90CF900895FF920F931F933D
:10353000CF93DF938C0160E0FC0180810E94E9233E
:10354000C0E0D0E0F12CC8010E945F1A0C2E01C02F
:10355000880F0A94EAF78F29F82E2196C830D105F2
:1035600091F7DF91CF911F910F91FF900895AF9246
:10357000BF92CF92DF92EF92FF920F931F93CF9360
:10358000DF931F92CDB7DEB75C01C42E790169834A
:103590000E949D196981882311F080E01BC0C5013C
:1035A0000E943A1AC11002C081E014C0C5010E94F5
:1035B0009D198111F2CF8701D12CC8018E199F0965
:1035C0008C159D058CF7F80161918F01C5010E9452
:1035D0003A1AF3CF0F90DF91CF911F910F91FF9087
:1035E000EF90DF90CF90BF90AF900895AF92BF92D1
:1035F000CF92DF92EF92FF920F931F93CF93DF93BF
:103600001F92CDB7DEB75C01C42E790169830E9499
:103610009D196981882311F080E018C0C5010E94BE
:103620003A1AC5010E94CB198111F6CF8701D12C1E
:10363000C8018E199F098C159D053CF4C5010E9497
:10364000951AF80181938F01F3CF81E00F90DF91FC
:10365000CF911F910F91FF90EF90DF90CF90BF908F
:10366000AF900895EF92FF920F931F93CF93DF9344
:103670001F92CDB7DEB77C01DC0112968D919C9133
:103680001397062F10E0009749F02D913C912017D9
:10369000310779F169830E94212D6981F701118336
:1036A0000083F3E06F9FC00111240E94892CD70191
:1036B00013969C938E931297892B21F48FE391E0BC
:1036C0000E94E22D80E090E0F701408151819A0153
:1036D000220F331F240F351F8217930750F4D70191
:1036E0001296ED91FC911397E80FF91F1082019645
:1036F000EBCF0F90DF91CF911F910F91FF90EF9043
:103700000895CF93DF93EC01862F262F30E0F90147
:10371000EA5AFE4FE491EE83F901E659FE4FE49137
:10372000F0E0EE0FFF1FE857FE4F259134913D83E7
:103730002C8361E00E94E92360E2CE01DF91CF910A
:103740000C94321BCF93DF93EC01862F262F30E0B1
:10375000F901EA5AFE4FE491EE83F901E659FE4F72
:10376000E491F0E0EE0FFF1FE857FE4F25913491F2
:103770003D832C8361E00E94E92360E2CE01DF916A
:10378000CF910C94321B0F93FC01A62FB0E08081E7
:103790009181A817B907B8F4862F880F860F90E09B
:1037A000A281B381A80FB91F2C93A281B381A80F66
:1037B000B91F11964C930280F381E02DE80FF91F99
:1037C000028381E001C080E00F910895CF92DF92E3
:1037D000EF92FF920F931F93CF93DF937C01142FEF
:1037E000D22EC02E611113C0C0E0D0E0F70180815D
:1037F0009181C817D90748F40C2D2D2D412F6C2F1E
:10380000C7010E94C31B2196F1CF81E004C0615023
:103810000E94C31B80E0DF91CF911F910F91FF9019
:10382000EF90DF90CF900895CF93CFB7F894D90160
:10383000EC91542F50955E234E2BFC01680F791F9D
:10384000E617F70789F08191D90198E04C9300C001
:1038500087FF5C93880F00C000C000C008F45C9331
:1038600000C09A9599F7ECCFCFBFCF910895FC0196
:103870002481358180819181BC01660F771F680F9B
:10388000791F4681828193810E94141C61E070E05F
:1038900080E090E00C94D622CF93DF93EC018A81F4
:1038A0009B810E94212D1B821A82DF91CF91089566
:1038B0001F93CF93DF93EC01162F0E9482191C8275
:1038C0001D821E821F82612FCE010E9483191887DC
:1038D000DF91CF911F9108950C9483191F93CF937B
:1038E000DF93EC01162F0E949D19811110C062E038
:1038F000CE010E943A1ACE010E949D19811107C083
:10390000612FCE01DF91CF911F910C943A1ADF9174
:10391000CF911F9108951F93CF93DF93EC01162F42
:103920000E949D19811110C063E0CE010E943A1AD5
:10393000CE010E949D19811107C0612FCE01DF9138
:10394000CF911F910C943A1ADF91CF911F91089556
:10395000CF92DF92EF92FF92CF93DF93EC016A0157
:103960007B018C819D81AE81BF8184179507A6075D
:10397000B70781F1CE010E949D1981112BC065E02E
:10398000CE010E943A1ACE010E949D19811122C0D7
:103990006C2DCE010E943A1A9927F7FC9A958F2D2B
:1039A0007E2D6D2DCE010E943A1AB701992777FD21
:1039B0009095892FCE010E943A1A6F2D992767FDA5
:1039C0009095792F892FCE010E943A1ACC82DD8200
:1039D000EE82FF82DF91CF91FF90EF90DF90CF904A
:1039E0000895CF92DF92EF92FF92CF93DF93EC0195
:1039F0006A017B010E949D1981112DC064E0CE01F6
:103A00000E943A1ACE010E949D19811124C06C2D8A
:103A1000CE010E943A1A9927F7FC9A958F2D7E2D98
:103A20006D2DCE010E943A1AB701992777FD909526
:103A3000892FCE010E943A1A6F2D992767FD909524
:103A4000792F892FCE01DF91CF91FF90EF90DF90FA
:103A5000CF900C943A1ADF91CF91FF90EF90DF90C6
:103A6000CF900895CF93DF93EC010E949D198111AF
:103A700006C066E0CE01DF91CF910C943A1ADF9137
:103A8000CF910895CF93DF93EC010E949D1981118E
:103A900006C067E0CE01DF91CF910C943A1ADF9116
:103AA000CF910895CF93DF93EC010E949D1981116E
:103AB00006C069E0CE01DF91CF910C943A1ADF91F4
:103AC000CF9108950F931F93CF93DF931F92CDB79C
:103AD000DEB78C0169830E9493096981F8016687CA
:103AE000C8010F90DF91CF911F910F910C94940911
:103AF0000C949409CF92DF92EF92FF920F931F9351
:103B0000CF93DF93CDB7DEB72C970FB6F894DEBF17
:103B10000FBECDBF8C010E94C609C8010E94D20A07
:103B200040E064E4C8010E946C0A0E94A7226B0175
:103B30007C01C8010E94AA0981110BC00E94A72222
:103B40006C197D098E099F096E3E724081059105B1
:103B500080F3C8010E94C609C8010E94D20A40E051
:103B60006EEBC8010E946C0ACE0101967C016E01C9
:103B700096E0C90ED11CC8010E94B60AF7018193D4
:103B80007F01EC15FD05B9F76A8170E0762F662795
:103B90008981682B882777FD8095982F0E94FE29C0
:103BA00020E030E040E85DE30E94312B2C960FB618
:103BB000F894DEBF0FBECDBFDF91CF911F910F9163
:103BC000FF90EF90DF90CF9008951F920F920FB665
:103BD0000F9211242F933F934F935F936F937F9393
:103BE0008F939F93AF93BF93EF93FF9380916C0359
:103BF00087FF05C010928500109284001AC02091A2
:103C00006C03332727FD309580916B0390E02817D4
:103C100039077CF480916C03992787FD9095FC010E
:103C2000EE0FFF1FE80FF91FE359FC4F808187FD5E
:103C300015C080916C038F5F80936C0320916C039F
:103C4000332727FD309580916B0390E028173907C3
:103C5000BCF480916C038C305CF112C080916C03D9
:103C6000992787FD9095FC01EE0FFF1FE80FF91FC4
:103C7000E359FC4F808160E08F770E942224D9CFE6
:103C80008091840090918500049680349C4918F4BA
:103C900080E49CE905C080918400909185000496A1
:103CA00090938900809388008FEF80936C0338C0D5
:103CB000209184003091850080916C03992787FDC5
:103CC0009095FC01EE0FFF1FE80FF91FE359FC4F21
:103CD00081819281820F931F909389008093880045
:103CE00080916C03992787FD9095FC01EE0FFF1FD3
:103CF000E80FF91FE359FC4F808187FF11C08091C5
:103D00006C03992787FD9095FC01EE0FFF1FE80FCC
:103D1000F91FE359FC4F808161E08F770E942224D4
:103D2000FF91EF91BF91AF919F918F917F916F9193
:103D30005F914F913F912F910F900FBE0F901F9069
:103D4000189520916B032C30A0F431E0320F3093A2
:103D50006B03FC012083822F90E0FC01EE0FFF1F1C
:103D6000E80FF91FE359FC4F88EB9BE092838183B6
:103D700008952FEFFC0120830895DF92EF92FF92C8
:103D80000F931F93CF93DF93EC01D62E7A01890115
:103D900088818C3008F066C061E08D2D0E94E92397
:103DA0008881A82FB0E0FD01EE0FFF1FEA0FFB1F77
:103DB000E359FC4F2D2D2F7790819078922B908393
:103DC00060E272E06E197F0977FF02C06D5F7F4F7E
:103DD0007595679575956795698340E659E0401B31
:103DE000510B57FF02C04D5F5F4F55954795559555
:103DF00047954A836CE00E94F42B9CE0899FB001B8
:103E0000112420E030E0A901460F571FFA01EE0F00
:103E1000FF1FE40FF51FE359FC4F908197FD16C07B
:103E20002F5F3F4F2C30310571F781110FC0109279
:103E3000800082E0809381001092850010928400BF
:103E4000B19A80916F00826080936F00888190E0CA
:103E5000FC01EE0FFF1FE80FF91FE359FC4F8081B3
:103E6000806880838881DF91CF911F910F91FF90AF
:103E7000EF90DF90089520E639E040E252E00C94A4
:103E8000BD1EFC0180818C3070F5918128E830E006
:103E9000291B310997FD3395220F331F220F331F42
:103EA000621773077CF0928128E532E0291B310903
:103EB00097FD3395220F331F220F331F62177307AD
:103EC0000CF49B0122503109220F331F4FB7F89495
:103ED00090E0FC01EE0FFF1FE80FF91FE359FC4FC4
:103EE000328321834FBF08954F925F926F927F92EA
:103EF000AF92BF92CF92DF92EF92FF920F931F93F8
:103F0000CF93DF93EC01603282E078070CF040C081
:103F100077FD06C0653B71052CF064EB70E002C0D4
:103F200060E070E0898128E830E0281B310987FDD6
:103F30003395220F331F220F331F5901CC24B7FCB6
:103F4000C094DC2C882777FD8095982F2A8148E53E
:103F500052E0421B510927FD5395440F551F440F52
:103F6000551F2A01662457FC6094762C7F926F922D
:103F70005F924F9214EBE12EF12C00E010E020E074
:103F800030E0A9010E9450280F900F900F900F90E1
:103F9000CE01DF91CF911F910F91FF90EF90DF90B5
:103FA000CF90BF90AF907F906F905F904F900C94A8
:103FB000411F2091D3033091D40328173907B9F456
:103FC0009091910380919203981789F0E091910369
:103FD000F0E0ED56FC4F80812091910330E02F5F9F
:103FE0003F4F2F7333272093910390E008958FEF75
:103FF0009FEF08951F93CF93DF93DC015C968D9123
:104000009C915D97009749F481E090E013969C9312
:104010008E93129780E090E03BC05196ED91FC9119
:10402000529750962C915097322F30951FB75E962D
:104030004C915E9741FB772770F941FD6095F894AC
:104040004081772311F0422B01C043234083EC01D0
:104050002197F1F748E0508160FF02C0522B01C068
:1040600053235083EC012197F1F76695415099F75E
:104070008081772311F0832301C0822B80831FBFAF
:104080005C968D919C915D970197F1F781E090E0AE
:10409000DF91CF911F9108952091D3033091D403E4
:1040A0002817390781F49091910380919203981712
:1040B00051F0E0919103F0E0ED56FC4F808199279B
:1040C00087FD909508958FEF9FEF08952091D3037A
:1040D0003091D4032817390771F48091920320910D
:1040E000910390E0805C9F4F821B910960E470E037
:1040F0000E94002C089580E090E008952091D30361
:104100003091D4032817390739F48FB7F8941092F7
:104110009203109291038FBF0895E091D303F09121
:10412000D403E817F90769F4A389B4899C918589B8
:10413000809589238C931092D4031092D30381E04D
:10414000089580E00895CF93DF93EC018A8D9B8DD5
:10415000892BF1F08091D3039091D4038C179D07A4
:10416000B9F0009711F00E948D208E8D8E7F8E8F7A
:104170001092920310929103D093D403C093D3036F
:10418000EB89FC8980819D89892B808381E001C036
:1041900080E0DF91CF9108951F920F920FB60F929A
:1041A00011242F933F934F935F936F937F938F933C
:1041B0009F93AF93BF93EF93FF93E091D303F0915D
:1041C000D403309709F451C0868DA685B7859585AF
:1041D00081FF04C08C91892329F447C08C918923E5
:1041E00009F043C0A389B4899C918589809589236E
:1041F0008C93868997890197F1F7208D318DA6855B
:10420000B785758558E040E0C9010197F1F7842F23
:1042100090E095958795482F6C91672309F0406849
:10422000515091F7868D81FD40958091920390E0E9
:1042300001968F73992720919103281749F0A09137
:104240009203B0E0AD56BC4F4C938093920303C0F1
:10425000868D8160868F828D938D0197F1F7A3897A
:10426000B4898C919589892B8C93FF91EF91BF91A3
:10427000AF919F918F917F916F915F914F913F91FE
:104280002F910F900FBE0F901F9018952FE531E0E2
:10429000FC01318320830C948D201F93CF93DF93F7
:1042A000EC01162F6E8D6695617081E06827812F75
:1042B0000E94222461E0812F0E94E923812F90E057
:1042C000FC01EA5AFE4FE491E88BFC01E659FE4FEF
:1042D000E491F0E0EE0FFF1FE857FE4F85919491B7
:1042E0009A8B898BDF91CF911F9108951F93CF9364
:1042F000DF93EC01162F60E0812F0E94E9238E8D61
:1043000081FD04C061E0812F0E9422241C87812F3F
:1043100090E0FC01EA5AFE4FE491ED87FC01E6597A
:10432000FE4FE491F0E0EE0FFF1FE258FE4F859143
:1043300094919F878E87DF91CF911F910895FF926F
:104340000F931F93CF93DF93EC01F62E522F1B8216
:104350001A8208EE13E020E030E00C831D832E83E8
:104360003F838FE591E0998388831F8A1E8A198E87
:10437000188E1B8E1A8E1D8E1C8E8E8D8E7F50FB7E
:1043800081F98E8F642FCE010E944D216F2DCE01B9
:10439000DF91CF911F910F91FF900C947621CF93D5
:1043A000DF93EC019A01AB011B8E1A8E198E188EC9
:1043B0001F8A1E8A60E079E08DE390E00E94362C2F
:1043C000C9012430310520F0B9016350710902C0E0
:1043D00061E070E07D8F6C8FEC85E63108F068C09D
:1043E000B901769567956431710518F063517109CB
:1043F00002C061E070E07F8B6E8B069718F0C901F8
:10440000059702C081E090E0998F888FC901880FDD
:10441000991F820F931F96958795969587958D3056
:10442000910510F00C9702C081E090E09B8F8A8F7D
:1044300020916800E83050F091E0EE3008F490E010
:1044400081E001C0880F9A95EAF701C084E0822BD1
:10445000809368002C85283038F02E3040F02631CB
:1044600048F48CE690E008C08DE690E005C08BE64D
:1044700090E002C080E090E09C8B8B8B283030F481
:1044800081E001C0880F2A95EAF70DC0822F90E0E5
:104490002E3010F4089701C00E9791E001C0990FDB
:1044A0008A95EAF7892F8D8B8C8D9D8D0197F1F779
:1044B000CE01DF91CF910C94A3201F920F920FB6E3
:1044C0000F9211242F933F938F939F93AF93BF939A
:1044D0008091D6039091D703A091D803B091D903CE
:1044E0003091D50323E0230F2D3720F40196A11D31
:1044F000B11D05C026E8230F0296A11DB11D209312
:10450000D5038093D6039093D703A093D803B09399
:10451000D9038091DA039091DB03A091DC03B09181
:10452000DD030196A11DB11D8093DA039093DB0397
:10453000A093DC03B093DD03BF91AF919F918F9166
:104540003F912F910F900FBE0F901F9018952FB78E
:10455000F8946091D6037091D7038091D80390911D
:10456000D9032FBF08953FB7F8948091DA03909153
:10457000DB03A091DC03B091DD0326B5A89B05C049
:104580002F3F19F00196A11DB11D3FBF6627782F5F
:10459000892F9A2F620F711D811D911D42E0660FB8
:1045A000771F881F991F4A95D1F70895CF92DF9200
:1045B000EF92FF92CF93DF936B017C010E94B322B5
:1045C000EB01C114D104E104F10489F00E949728A1
:1045D0000E94B3226C1B7D0B683E734090F381E018
:1045E000C81AD108E108F108C851DC4FEACFDF91C1
:1045F000CF91FF90EF90DF90CF900895823091059A
:1046000038F0880F991F880F991F05970197F1F7C8
:104610000895789484B5826084BD84B5816084BD3A
:1046200085B5826085BD85B5816085BDEEE6F0E02B
:10463000808181608083E1E8F0E010828081826087
:104640008083808181608083E0E8F0E08081816008
:104650008083E1EBF0E0808184608083E0EBF0E038
:10466000808181608083EAE7F0E0808184608083DC
:104670008081826080838081816080838081806886
:1046800080831092C10008958E3008F08E5087709C
:1046900020910A0190E4299F90011124822B80939C
:1046A0007C0080917A00806480937A0080917A0007
:1046B00086FDFCCF809178002091790090E0922BCC
:1046C00008951F93CF93DF93182FEB0161E00E94B1
:1046D000E923209711F460E004C0CF3FD10539F4FD
:1046E00061E0812FDF91CF911F910C942224E12F63
:1046F000F0E0EE5BFE4FE491E330F9F048F4E13096
:10470000B9F0E230A1F584B5806284BDC8BD34C083
:10471000E730E9F0E83019F1E43049F580918000A4
:10472000806280938000D0938B00C0938A0024C065
:1047300084B5806884BDC7BD1FC08091800080683B
:1047400080938000D0938900C093880015C0809129
:10475000B00080688093B000C093B3000DC080911A
:10476000B00080628093B000C093B40005C0C03830
:10477000D1050CF0B5CFAFCFDF91CF911F91089548
:10478000833081F028F4813099F08230A1F00895CF
:104790008730A9F08830B9F08430D1F4809180005E
:1047A0008F7D03C0809180008F7780938000089573
:1047B00084B58F7702C084B58F7D84BD08958091C4
:1047C000B0008F7703C08091B0008F7D8093B000E0
:1047D0000895CF93DF9390E0FC01EA5AFE4F2491B5
:1047E000FC01E659FE4F8491882349F190E0880F3F
:1047F000991FFC01EE56FE4FA591B49188579E4F2C
:10480000FC01C591D4919FB7611108C0F8948C91B7
:10481000209582238C93888182230AC0623051F4D0
:10482000F8948C91322F309583238C938881822B3E
:10483000888304C0F8948C91822B8C939FBFDF9166
:10484000CF9108950F931F93CF93DF931F92CDB70E
:10485000DEB7282F30E0F901EE5BFE4F8491F901BD
:10486000EA5AFE4F1491F901E659FE4F04910023D4
:10487000C9F0882321F069830E94C0236981E02F59
:10488000F0E0EE0FFF1FE857FE4FA591B4919FB7E0
:10489000F8948C91611103C01095812301C0812B84
:1048A0008C939FBF0F90DF91CF911F910F9108952F
:1048B000CF93DF93282F30E0F901EE5BFE4F849118
:1048C000F901EA5AFE4FD491F901E659FE4FC4911D
:1048D000CC2391F081110E94C023EC2FF0E0EE0F69
:1048E000FF1FE258FE4FA591B4912C912D2381E03A
:1048F00090E021F480E002C080E090E0DF91CF9171
:104900000895FC01818D228D90E0805C9F4F821B79
:1049100091098F7399270895FC01918D828D9817C5
:1049200031F0828DE80FF11D858D90E008958FEFB5
:104930009FEF0895FC01918D828D981761F0828D13
:10494000DF01A80FB11D5D968C91928D9F5F9F73C3
:10495000928F90E008958FEF9FEF08958CEB95E292
:10496000892B49F080E090E0892B29F00E94BC253A
:1049700081110C9400000895FC01848DDF01A80FC3
:10498000B11DA35ABF4F2C91848D90E001968F7377
:104990009927848FA689B7892C93A089B1898C9196
:1049A00080648C93938D848D981306C00288F3895C
:1049B000E02D80818F7D80830895CF93DF93EC017C
:1049C000888D8823C9F0EA89FB89808185FD05C02F
:1049D000A889B9898C9186FD0FC00FB607FCF5CF69
:1049E000808185FFF2CFA889B9898C9185FFEDCFB1
:1049F000CE010E94BC24E7CFDF91CF910895CF92E2
:104A0000DF92FF920F931F93CF93DF931F92CDB747
:104A1000DEB76C0181E0D60158968C9358975B966F
:104A20009C915B975C968C915C97981307C050960D
:104A3000ED91FC915197808185FD2EC0F601038D8B
:104A400010E00F5F1F4F0F731127F02EF601848DBA
:104A5000F81211C00FB607FCF9CFD6015096ED91B0
:104A6000FC915197808185FFF1CFC60169830E9437
:104A7000BC246981EBCF838DE80FF11DE35AFF4F12
:104A80006083D6015B960C935B975296ED91FC91F7
:104A90005397808180620CC0D6015696ED91FC91AF
:104AA000579760835096ED91FC9151978081806477
:104AB000808381E090E00F90DF91CF911F910F9163
:104AC000FF90DF90CF9008951F920F920FB60F9234
:104AD00011242F938F939F93EF93FF93E091EE0315
:104AE000F091EF038081E091F403F091F50382FDF2
:104AF00012C090818091F7038F5F8F732091F8032C
:104B0000821751F0E091F703F0E0E252FC4F958FED
:104B10008093F70301C08081FF91EF919F918F9166
:104B20002F910F900FBE0F901F9018951F920F920C
:104B30000FB60F9211242F933F934F935F936F9370
:104B40007F938F939F93AF93BF93EF93FF938EEDDC
:104B500093E00E94BC24FF91EF91BF91AF919F9190
:104B60008F917F916F915F914F913F912F910F9016
:104B70000FBE0F901F9018958EED93E00E94812438
:104B800021E0892B09F420E0822F08951092E1039F
:104B90001092E00388EE93E0A0E0B0E08093E2039F
:104BA0009093E303A093E403B093E5038FE691E0D1
:104BB0009093DF038093DE0385EC90E09093EB030A
:104BC0008093EA0384EC90E09093ED038093EC03F0
:104BD00080EC90E09093EF038093EE0381EC90E003
:104BE0009093F1038093F00382EC90E09093F303B1
:104BF0008093F20386EC90E09093F5038093F403A6
:104C00001092F7031092F8031092F9031092FA032E
:104C1000089508950E9409230E9409260E9486088B
:104C2000CEEAD4E20E9491092097E1F30E94AE24DB
:104C3000F9CFCF92DF92EF92FF920F931F93CF9312
:104C4000DF936C017A01EB01E60EF71E00E010E045
:104C5000CE15DF0561F06991D601ED91FC910190CF
:104C6000F081E02DC6010995080F191FF1CFC80189
:104C7000DF91CF911F910F91FF90EF90DF90CF9038
:104C800008956115710581F0DB010D900020E9F7B1
:104C9000AD0141505109461B570BDC01ED91FC91D0
:104CA0000280F381E02D099480E090E00895DC011A
:104CB000ED91FC910190F081E02D09946BE771E09A
:104CC0000C9441268F929F92AF92BF92CF92DF9227
:104CD000EF92FF920F931F93CF93DF93CDB7DEB781
:104CE000A1970FB6F894DEBF0FBECDBF7C01C42ED6
:104CF000E52FCB01D22E19A221E02D1510F02AE0CC
:104D0000D22E8E010F5D1F4F8D2C912CA12CB12C1A
:104D10006C2D7E2FA50194010E94142C8C2DD29E07
:104D200080191124015011098A3014F4805D01C0EA
:104D3000895CF8018083211531054105510521F079
:104D4000C22EE32FCA01E4CFB801C7010E94412659
:104D5000A1960FB6F894DEBF0FBECDBFDF91CF9105
:104D60001F910F91FF90EF90DF90CF90BF90AF9089
:104D70009F908F900895CF92DF92EF92FF920F93C2
:104D80001F93CF93DF93EC016A017B01211531055D
:104D900079F4E881F9810190F081E02D642FDF91B1
:104DA000CF911F910F91FF90EF90DF90CF900994DA
:104DB0002A303105E9F477FF1AC06DE20E945726C8
:104DC0008C0144275527BA014C195D096E097F09EA
:104DD0002AE0CE010E946226800F911FDF91CF91C1
:104DE0001F910F91FF90EF90DF90CF9008952AE0F0
:104DF000B701A601CE01DF91CF911F910F91FF90D6
:104E0000EF90DF90CF900C9462260F931F93CF9377
:104E1000DF93EC019A01AB01662757FD6095762F71
:104E20000E94BB268C01CE010E945E26800F911F3E
:104E3000DF91CF911F910F9108950F931F93CF93FF
:104E4000DF93EC010E94BB268C01CE010E945E26FE
:104E5000800F911FDF91CF911F910F910895211520
:104E6000310541F4DC01ED91FC910190F081E02DE0
:104E7000642F09940C9462260F931F93CF93DF93B2
:104E8000EC019A01462F50E060E070E00E942F276D
:104E90008C01CE010E945E26800F911FDF91CF9181
:104EA0001F910F9108954F925F926F927F928F9210
:104EB0009F92AF92BF92CF92DF92EF92FF920F93A9
:104EC0001F93CF93DF93EC016A017B01B22E9A010D
:104ED000AB01C701B6010E94D92B882319F06EE7F8
:104EE00071E027C026013701E89477F82FEF3FEFF4
:104EF0004FE75FE7C301B2010E94D92B81110DC0BA
:104F00002FEF3FEF4FE75FE7C301B2010E945F2938
:104F100018161CF462E871E00CC02FEF3FEF4FE76A
:104F20005FE4C701B6010E94262B1816ACF466E8B0
:104F300071E0CE01DF91CF911F910F91FF90EF9023
:104F4000DF90CF90BF90AF909F908F907F906F90A9
:104F50005F904F900C9441262FEF3FEF4FE75FECAF
:104F6000C701B6010E945F2987FDE1CF20E030E054
:104F7000A901C701B6010E945F2987FF0AC06DE23F
:104F8000CE010E9457268C01F7FAF094F7F8F094BE
:104F900002C000E010E0A12C60E070E080E09FE340
:104FA000AB1441F020E030E040E251E40E9463297C
:104FB000A394F6CF9B01AC01C701B6010E949928CA
:104FC0006B017C010E94D0292B013C010E94FC292D
:104FD0009B01AC01C701B6010E9498286B017C01BE
:104FE0002AE0B301A201CE010E946226080F191F18
:104FF000BB2039F06AE871E0CE010E944126080F1B
:10500000191F7B2C772041F120E030E040E251E491
:10501000C701B6010E94312B6B017C010E94CB2994
:105020004B01AA2497FCA094BA2C2AE030E0B501E9
:10503000A401CE010E94BB26080F191FC501B401AF
:105040000E94FE299B01AC01C701B6010E9498286D
:105050006B017C017A94D6CFC801DF91CF911F916B
:105060000F91FF90EF90DF90CF90BF90AF909F9007
:105070008F907F906F905F904F9008950F931F9344
:10508000CF93DF93EC010E9453278C01CE010E9445
:105090005E26800F911FDF91CF911F910F91089590
:1050A0004F925F926F927F92AF92BF92CF92DF92B8
:1050B000EF92FF920F931F93CF93DF93CDB7DEB79D
:1050C00029013A01621B730B840B950B29893A89DC
:1050D0004B895C892A193B094C095D09298B3A8B5C
:1050E0004B8B5C8B9B01AC0169897A898B899C898C
:1050F0000E94E42BE418F50806091709A801970196
:105100000E94362C2A0D3B1D4C1D5D1DCA01B901A4
:10511000DF91CF911F910F91FF90EF90DF90CF9093
:10512000BF90AF907F906F905F904F9008950895DB
:105130005058BB27AA270ED038C229D230F02ED221
:1051400020F031F49F3F11F41EF4F9C10EF4E09504
:10515000E7FBC6C1E92F3AD280F3BA17620773079B
:105160008407950718F071F49EF569C20EF4E09576
:105170000B2EBA2FA02D0B01B90190010C01CA0111
:10518000A0011124FF27591B99F0593F50F4503EBC
:1051900068F11A16F040A22F232F342F4427585FAE
:1051A000F3CF469537952795A795F0405395C9F7C6
:1051B0007EF41F16BA0B620B730B840BBAF091507E
:1051C000A1F0FF0FBB1F661F771F881FC2F70EC01D
:1051D000BA0F621F731F841F48F4879577956795F0
:1051E000B795F7959E3F08F0B3CF9395880F08F0D9
:1051F0009927EE0F979587950895C9D158F080E8C3
:1052000091E009F49EEFCAD128F040E851E059F44A
:105210005EEF09C094C113C2E92FE078D7D168F3DB
:10522000092E052AC1F3261737074807590738F012
:105230000E2E07F8E02569F0E025E0640AC0EF6370
:1052400007F8009407FADB01B9019D01DC01CA01EE
:10525000AD01EF9347D0A9D10AD05F91552331F02A
:105260002BED3FE049E450FD49EC63CF0895DF9317
:10527000DD27B92FBF7740E85FE31616170648070A
:105280005B0710F4D92FE6D19F938F937F936F9391
:105290008DD2E4E1F1E056D188D12F913F914F9129
:1052A0005F91EBD1DD2349F09058A2EA2AED3FE06F
:1052B00049EC5FE3D0785D274DDFDF9176C1ECD01C
:1052C00008F481E008950CD070C168D140F05FD13E
:1052D00030F021F45F3F19F003C15111B1C12FC16A
:1052E00075D198F39923C9F35523B1F3951B550B49
:1052F000BB27AA2762177307840738F09F5F5F4FA9
:10530000220F331F441FAA1FA9F333D00E2E3AF0E9
:10531000E0E830D091505040E695001CCAF729D003
:10532000FE2F27D0660F771F881FBB1F2617370752
:105330004807AB07B0E809F0BB0B802DBF01FF2782
:1053400093585F4F2AF09E3F510568F0C9C078C15D
:105350005F3FECF3983EDCF3869577956795B795BC
:10536000F7959F5FC9F7880F911D9695879597F9D7
:105370000895E1E0660F771F881FBB1F6217730750
:105380008407BA0720F0621B730B840BBA0BEE1F65
:1053900088F7E095089504D06894B11151C108953B
:1053A0001DD188F09F5790F0B92F9927B751A0F0E1
:1053B000D1F0660F771F881F991F1AF0BA95C9F7A9
:1053C00012C0B13081F03BD1B1E0089538C1672FF0
:1053D000782F8827B85F39F0B93FCCF38695779559
:1053E0006795B395D9F73EF4909580957095619542
:1053F0007F4F8F4F9F4F0895E89409C097FB3EF46D
:1054000090958095709561957F4F8F4F9F4F992311
:10541000A9F0F92F96E9BB279395F695879577958F
:105420006795B795F111F8CFFAF4BB0F11F460FF4F
:105430001BC06F5F7F4F8F4F9F4F16C0882311F0A7
:1054400096E911C0772321F09EE8872F762F05C0BB
:10545000662371F096E8862F70E060E02AF09A9556
:10546000660F771F881FDAF7880F9695879597F94B
:105470000895CED080F09F3740F491110EF0E0C037
:1054800060E070E080E89FEB089526F41B16611D34
:10549000711D811D2BC045C0990F0008550FAA0B27
:1054A000E0E8FEEF16161706E807F907C0F0121637
:1054B0001306E407F50798F0621B730B840B950B3A
:1054C00039F40A2661F0232B242B252B21F408958F
:1054D0000A2609F4A140A6958FEF811D811D08952C
:1054E00097F99F6780E870E060E00895882371F481
:1054F000772321F09850872B762F07C0662311F46D
:1055000099270DC09051862B70E060E02AF09A95A3
:10551000660F771F881FDAF7880F9695879597F99A
:1055200008959F3F31F0915020F4879577956795C6
:10553000B795880F911D9695879597F908959FEFD8
:1055400080EC0895DF93CF931F930F93FF92EF9218
:10555000DF927B018C01689405C0DA2EEF018DD0BB
:10556000FE01E894A5912591359145915591AEF3B1
:10557000EF01F0DDFE019701A801DA9479F7DF90E1
:10558000EF90FF900F911F91CF91DF91089500242C
:105590000A941616170618060906089500240A9498
:1055A00012161306140605060895092E0394000C1E
:1055B00011F4882352F0BB0F40F4BF2B11F460FFAD
:1055C00004C06F5F7F4F8F4F9F4F089557FD9058D6
:1055D000440F551F59F05F3F71F04795880F97FBB7
:1055E000991F61F09F3F79F0879508951216130671
:1055F0001406551FF2CF4695F1DF08C016161706A0
:105600001806991FF1CF86957105610508940895D4
:10561000E5DFA0F0BEE7B91788F4BB279F3860F438
:105620001616B11D672F782F8827985FF7CF8695BC
:1056300077956795B11D93959639C8F30895E894C9
:10564000BB2766277727CB0197F9089525DF08F454
:105650008FEF08959B01AC0160E070E080E89FE36C
:1056600032CE0BD0A2CF93DF28F098DF18F095232D
:1056700009F036CF64CF1124E3CFA8DFA0F3959FC4
:10568000D1F3950F50E0551F629FF001729FBB2729
:10569000F00DB11D639FAA27F00DB11DAA1F649FD5
:1056A0006627B00DA11D661F829F2227B00DA11D88
:1056B000621F739FB00DA11D621F839FA00D611D0E
:1056C000221F749F3327A00D611D231F849F600D2F
:1056D000211D822F762F6A2F11249F5750408AF068
:1056E000E1F088234AF0EE0FFF1FBB1F661F771FF4
:1056F000881F91505040A9F79E3F510570F0F0CEA1
:105700009FCF5F3FECF3983EDCF3869577956795E6
:10571000B795F795E7959F5FC1F7FE2B880F911D11
:105720009695879597F9089511F40EF408CFF9CE60
:1057300055DFD0F39923D9F3CEF39F57550B87FF4D
:105740003CD00024A0E640EA9001805856959795F9
:1057500028F4805C660F771F881F20F02617370714
:10576000480730F4621B730B840B202931294A2B24
:10577000A69517940794202531254A2758F7660FD8
:10578000771F881F20F026173707480730F4620B71
:10579000730B840B200D311D411DA09581F7B901BC
:1057A000842F9158880F9695879508959B01AC0199
:1057B00058CF72DE880B990B089591505040660FB8
:1057C000771F881FD2F70895DB018F939F930E9464
:1057D0005B2CBF91AF91A29F800D911DA39F900D57
:1057E000B29F900D11240895991B79E004C0991F70
:1057F000961708F0961B881F7A95C9F7809508952B
:1058000097FB072E16F4009407D077FD09D00E946D
:10581000662C07FC05D03EF4909581959F4F089526
:10582000709561957F4F0895A1E21A2EAA1BBB1BAC
:10583000FD010DC0AA1FBB1FEE1FFF1FA217B3075C
:10584000E407F50720F0A21BB30BE40BF50B661F72
:10585000771F881F991F1A9469F760957095809536
:1058600090959B01AC01BD01CF010895052E97FBDA
:105870001EF400940E944D2C57FD07D00E94142C5A
:1058800007FC03D04EF40C944D2C50954095309568
:1058900021953F4F4F4F5F4F08959095809570959C
:1058A00061957F4F8F4F9F4F0895EE0FFF1F05901B
:1058B000F491E02D09940E947A2CA59F900DB49F3D
:1058C000900DA49F800D911D11240895AA1BBB1B50
:1058D00051E107C0AA1FBB1FA617B70710F0A61BF0
:1058E000B70B881F991F5A95A9F780959095BC0111
:1058F000CD010895A29FB001B39FC001A39F700D79
:10590000811D1124911DB29F700D811D1124911DC7
:105910000895CF93DF938230910510F482E090E0F8
:10592000E0917D04F0917E0420E030E0A0E0B0E062
:10593000309739F14081518148175907B8F048171D
:10594000590771F482819381109729F013969C93E3
:105950008E9312972CC090937E0480937D0427C071
:105960002115310531F04217530718F0A901DB0169
:1059700001C0EF019A01BD01DF010280F381E02D3A
:10598000D7CF21153105F9F0281B390B243031050B
:1059900080F48A819B816115710521F0FB0193835D
:1059A000828304C090937E0480937D04FE0132962E
:1059B00044C0FE01E20FF31F8193919322503109FD
:1059C000398328833AC020917B0430917C04232BB7
:1059D00041F4209102013091030130937C04209323
:1059E0007B0420910001309101012115310541F422
:1059F0002DB73EB74091040150910501241B350B92
:105A0000E0917B04F0917C04E217F307A0F42E1BD5
:105A10003F0B2817390778F0AC014E5F5F4F241712
:105A2000350748F04E0F5F1F50937C0440937B0472
:105A30008193919302C0E0E0F0E0CF01DF91CF913C
:105A40000895CF93DF93009709F487C0FC01329744
:105A500013821282C0917D04D0917E04209781F43C
:105A600020813181280F391F80917B0490917C0423
:105A70008217930779F5F0937C04E0937B046DC063
:105A8000DE0120E030E0AE17BF0750F412964D91D2
:105A90005C9113979D014115510509F1DA01F3CF8E
:105AA000B383A28340815181840F951F8A179B077E
:105AB00071F48D919C911197840F951F029691839B
:105AC000808312968D919C911397938382832115E5
:105AD000310529F4F0937E04E0937D043EC0D901A2
:105AE0001396FC93EE9312974D915D91A40FB51F01
:105AF000EA17FB0779F480819181840F951F029644
:105B0000D90111969C938E938281938113969C93D5
:105B10008E931297E0E0F0E08A819B81009719F064
:105B2000FE01EC01F9CFCE01029628813981820F66
:105B3000931F20917B0430917C042817390769F466
:105B4000309729F410927E0410927D0402C01382D3
:105B50001282D0937C04C0937B04DF91CF9108958F
:105B6000662777270C94DD30FC0188279927E89475
:105B700021912032E9F3293010F02E30C8F32B3276
:105B800041F02D3239F4689404C00E94DA2D820F5E
:105B9000911D219120532A30C0F31EF490958195D8
:105BA0009F4F089591116CC4803219F0895085502F
:105BB000D0F708957AE0979F902D879F802D910DC3
:105BC000112408950F931F93CF93DF93E0918104E5
:105BD000F0918204238121FF1BC0EC0100E010E062
:105BE00089916091810470918204DB011896ED9196
:105BF000FC911997882331F00995892B89F30FEFD0
:105C00001FEFEECF8AE00995892B11F4C80102C07D
:105C10008FEF9FEFDF91CF911F910F910895AEE02D
:105C2000B0E0E5E1FEE20C94CD3285E08C838B8917
:105C30009C899A838983AE01495E5F4F6D897E8915
:105C4000CE0101960E94A62F2E96E2E00C94E93236
:105C500020FD09C0FC0123FD05C022FF02C07383A3
:105C6000628351834083089544FD10C046FD10C0F7
:105C7000DB01FC01AA0FBB1FEE1FFF1F1094D1F721
:105C80006A0F7B1F8E1F9F1F31E003C033E001C0EE
:105C900034E0660F771F881F991F3150D1F7620FCC
:105CA000711D811D911D08950F931F93CF93DF9355
:105CB0008C01C8010E946632EC0197FD08C00E9469
:105CC000D22D892BB1F7B801CE010E94A432CE01AA
:105CD000DF91CF911F910F9108958F929F92AF9274
:105CE000CF92DF92EF92FF920F931F93CF93DF93A8
:105CF000EC01A62E4A01022F0E946632AC01552704
:105D00004B32510521F04D32510551F40068AA94EF
:105D100011F480E067C0CE010E94663297FDF9CF92
:105D2000102F1D7F302F307301F58033F1F4FF24E5
:105D3000FA94FA0C09F442C0CE010E94663297FD33
:105D40003DC0382F3F7D383551F41264AA94AA948F
:105D5000A9F1CE010E94663297FF07C02FC006FF4F
:105D600002C0126001C01261AF2CC12CD12C76018F
:105D700020ED280F283080F014FF04C0BE010E94DF
:105D8000A43219C02A3040F016FFF8CF2F7D3FEE25
:105D9000320F363098F72750412FC701B6010E94C5
:105DA000342E6B017C011260AA9459F0CE010E943E
:105DB000663297FFDDCF11FD04C0ABCFC12CD12CD3
:105DC000760117FF08C0F094E094D094C094C11CF1
:105DD000D11CE11CF11C212FB701A601C4010E94B6
:105DE000282E81E0DF91CF911F910F91FF90EF90CE
:105DF000DF90CF90AF909F908F900895A1E2B0E098
:105E0000E4E0FFE20C94C2325C017A018E010F5F84
:105E10001F4F680180E2D8011D928A95E9F7F501CC
:105E2000738040E050E0812CB0E0912C81E090E064
:105E3000F90173FCA59173FEA1918F017A2F9F0147
:105E4000A11103C080E090E07DC0AE3519F441158A
:105E5000510559F1E92DF0E0E417F5073CF4AD35B3
:105E600069F1AD3219F4BB2319F103C0B11101C0BE
:105E70008A2EE72FE695E695E69586010E0F111D11
:105E8000F801A72FA7708C0102C0000F111FAA955F
:105E9000E2F7D801B081BA2BB083781559F07815A4
:105EA00010F47F5FE6CF7150E4CF9924939403C040
:105EB000B1E001C0B0E04F5F5F4FBACFBB2319F034
:105EC0008E8180628E83911003C09924939415C0B3
:105ED000F601CE018196208120952193E817F907DC
:105EE000D1F7F3CFE114F10429F0D7018C93F70136
:105EF00031967F01615001F1912CC50169A30E9487
:105F0000663269A197FD16C0282F269526952695FD
:105F1000F601E20FF11D208130E0AC0147705527FA
:105F200002C0359527954A95E2F720FDDBCFB501F4
:105F30000E94A432911086CFE114F10411F0D70130
:105F40001C92C801A196EDE00C94DE324F925F9254
:105F50007F928F929F92AF92BF92CF92DF92EF92F9
:105F6000FF920F931F93CF93DF931F92CDB7DEB7AE
:105F70008C012B017A01FC0117821682A12CF801F9
:105F8000D380F201D3FC8591D3FE8191382F2F016C
:105F9000882309F4FCC090E039830E94D22D398116
:105FA000892B21F0C8010E94542EE9CF353241F4EB
:105FB000F201D3FC3591D3FE31912F01353269F4D2
:105FC000C80139830E946632398197FDDEC03817D7
:105FD000B1F2B8010E94A432DAC03A3241F4D3FCE3
:105FE0003591D3FE31912F01BB24B39401C0B12C64
:105FF000712C20ED230F2A3090F4FB2DF260BF2E80
:10600000672D70E080E090E040E20E94342E762E12
:10601000F201D3FC3591D3FE31912F01EACFB1FECD
:1060200003C0711003C0B3C077247A94383619F0D6
:106030003C3661F014C0F201D3FC3591D3FE3191AE
:106040002F01383661F4FB2DF860BF2E8B2D846054
:10605000B82EF201D3FC3591D3FE31912F013323B9
:1060600009F495C0632F70E08CE991E039830E94B8
:1060700043323981892B09F48AC0B0FC07C0F7018B
:10608000C080D180C70102967C0102C0C12CD12CF6
:106090003E3651F4F8014681578160E070E02B2DC7
:1060A000C6010E94282E6BCF3336A1F4B1FC02C08A
:1060B00077247394C8010E94663297FD66C0C114AC
:1060C000D10429F0F6018083C60101966C017A940F
:1060D00089F757C03B3559F49201A601672DC801D5
:1060E0000E94FE2E2C01009709F04BC045C0C8014C
:1060F00039830E94542E398197FD47C03F3669F19C
:1061000028F4343631F1393679F12BC0333769F060
:106110003537F9F026C0C114D10429F0F601808288
:10612000C60101966C017A9471F0C8010E94663232
:106130004C0197FD08C00E94D22D892B61F3B80154
:10614000C4010E94A432C114D104D9F0F601108216
:1061500018C0FB2DF062BF2E07C08B2D8061B82EBA
:1061600003C09B2D9064B92E2B2DA601672DC8016D
:106170000E946D2E811105C0F8018381807329F47E
:1061800006C0B0FCFCCEA394FACEAA2019F08A2D4A
:1061900090E002C08FEF9FEF0F90DF91CF911F91A2
:1061A0000F91FF90EF90DF90CF90BF90AF909F90B6
:1061B0008F907F905F904F900895A0E0B0E0E3EE65
:1061C000F0E30C94C3328B016115710521F0DB0102
:1061D0008C9311969C93EC015E01BFEFAB1ABB0A46
:1061E0007501C8808C2D90E00E94D22D892B11F072
:1061F000E501F2CFEDE2CE1208C07E01F2E0EF0E33
:10620000F11CC980DD24D39409C02BE2C21205C061
:106210007E0142E0E40EF11CC980D12CE7012197F8
:1062200043E050E060EB71E0CE010E944E32892BDA
:10623000C1F4239645E050E06BEA71E0CE010E9484
:106240004E32892B09F425960115110519F0D80154
:10625000CD93DC93D11006C160E070E080E89FE749
:106260000AC143E050E068EA71E0CE010E944E327C
:10627000892B59F40115110509F4F9C0B2E0EB0EB0
:10628000F11CF801F182E082F2C0F70160E070E0F9
:10629000CB01C0E0D0E07F01A0EDAA2EAC0C29E03C
:1062A0002A1530F14D2D4260B42E2D2D2870D2FECE
:1062B00004C0211125C0219623C021112197A5E0FA
:1062C000B0E09B01AC010E945B2C660F771F881F1A
:1062D000991F6A0D711D811D911D6839A9E97A0701
:1062E0008A07A9E19A0760F0BD2DB660BB2E08C0F1
:1062F0002EEFA2120AC0D3FC50C04D2D4860B42E20
:106300003196D701CC90DB2CC6CF2C2D2F7D253498
:1063100009F043C0A081AD3241F4BD2DB061DB2E48
:106320007F0122E0E20EF11C0CC07F01AB3231F0A4
:106330004FEFE41AF40A21E030E006C0A2E0EA0ED2
:10634000F11CA18122E030E0A053AA3018F0E21A3B
:10635000F30A23C0F70120E030E02038BCE03B071F
:106360005CF4A901440F551F440F551F240F351F1E
:10637000220F331F2A0F311DAF014F5F5F4F7A018C
:10638000A081A053AA3010F4FA01E7CFD4FE03C0D5
:10639000319521953109C20FD31FD1FE09C00115D6
:1063A000110531F0E1E0EE1AF108D801ED92FC920E
:1063B0000E94FC292D2D2370233019F04B015C0124
:1063C00006C04B015C01B7FAB094B7F8B09420E076
:1063D00030E0A901C501B4010E945F29882309F4B6
:1063E0003EC0D7FF06C0D195C195D10907EC11E099
:1063F00002C00FED11E06801B8E1CB1AD10890E2BC
:10640000E92EF12CCE15DF0574F0F80125913591B8
:1064100045915491C501B4010E94312B4B015C019F
:10642000CE19DF09EFCF04501109F594E7940C154C
:106430001D0541F78A2D880F8B2D881F8F3F49F04E
:1064400020E030E0A901C501B4010E945F2981115B
:1064500006C082E290E09093860480938504C50193
:10646000B40109C060E070E080E89FEF04C060E024
:1064700070E080EC9FE7CDB7DEB7ECE00C94DF3244
:10648000992788270895FC010590061621F0002021
:10649000D9F7C00108953197CF010895FB01DC01C0
:1064A0004150504088F08D9181341CF08B350CF4B4
:1064B000805E659161341CF06B350CF4605E861B68
:1064C000611171F3990B0895881BFCCFCF93DF9373
:1064D000EC012B8120FF33C026FF0AC02F7B2B83CA
:1064E0008E819F8101969F838E838A8190E029C04F
:1064F00022FF0FC0E881F9818081992787FD90955F
:10650000009719F420622B831AC03196F983E8832F
:106510000EC0EA85FB85099597FF09C02B8101967E
:1065200011F480E101C080E2822B8B8308C02E81B0
:106530003F812F5F3F4F3F832E83992702C08FEF0C
:106540009FEFDF91CF910895FB01238120FF12C0BF
:1065500026FD10C08F3F3FEF930761F082832F7DB0
:106560002064238326813781215031093783268394
:10657000992708958FEF9FEF08952F923F924F92A2
:106580005F926F927F928F929F92AF92BF92CF92C3
:10659000DF92EF92FF920F931F93CF93DF93CDB7CC
:1065A000DEB7CA1BDB0B0FB6F894DEBF0FBECDBF44
:1065B00009942A88398848885F846E847D848C8415
:1065C0009B84AA84B984C884DF80EE80FD800C811E
:1065D0001B81AA81B981CE0FD11D0FB6F894DEBF01
:1065E0000FBECDBFED01089511E0C8EED1E004C0AB
:1065F000FE010E94572C2296CA3ED107C9F7F89493
:02660000FFCFCA
:1066020000008704800001000000014125640A00A7
:106612004125642025640A00412564202564202543
:10662200640A004125642025642025642025642015
:1066320025640A00747275650066616C73650054A6
:1066420068657265206973206E6F7420656E6F7560
:106652006768207370616365210D0000000000FA15
:106662001F19266620D91F4C207E2000000000FF43
:1066720024192681249A248C24DD240D0A006E61BB
:0C6682006E00696E66006F7666002E00E8
:00000001FF
